2000027954862010 33F5002704CAMPO GRANDE                                                                                                                                          MS221000000000000000000001500057315002704CAMPO GRANDE                                                                                                                                          MS2115002704CAMPO GRANDE                                                                                                                                          MS1111   521.10   548.30   507.60   340.80EECECCCAECABEDABAEADEBABBECCCDDEBDEEEBACDEDDDBBABCAEBAEBBADBADAEDADBDBADAEEDDECCBABAAABCDAAABECBEBBCAEACEDBBACAEBBECCEAACDDEAEEBDEBBAAABCDCCCDCCACBCBEACCBBCBCBACBBCCADACBABACBADBCE 89 85 95 990BACEADCAECABDDACBABEBDEDAEECDBCDBDEEABDACEDDCABABDACBAEBCCCBEABCCADBBCCDECEEDBEDBAEAEDECDDEADCDEDDDACEECCAEDEDDBBACCCEBBEBDAACDBCDEDADDABADACEEBBDACCABDEBBABDCCADAECEDEBDCBBDBBCBDEBEDDEP   750.00   750.00   875.00   750.00   500.00   725.00
2000040823732010 16F3106200BELO HORIZONTE                                                                                                                                        MG3  000000000000000000003                                                                                                                                                                          3106200BELO HORIZONTE                                                                                                                                        MG1111   477.20   504.00   527.70   555.40BBBEDDCDEBCBBEABBBEBECBBCCBEBDCABCBABAAECDDADCAECDCDDAABEADAADCCCBADBDAEEBDDDBEDBACAACCEDBBEAAACEBBCAAAECDCCACCCECECBCAAADDECEDADBBBEDDCADEDDADCABBCEAAECDBBACBDDBEDECCAEACABABBECDE 89 85 95 990BACEADCAECABDDACBABEBDEDAEECDBCDBDEEABDACEDDCABABDACBAEBCCCBEABCCADBBCCDECEEDBEDBAEAEDECDDEADCDEDDDACEECCAEDEDDBBACCCEBBEBDAACDBCDEDADDABADACEEBBDACCABDEBBABDCCADAECEDEBDCBBDBBCBDEBEDDEP   500.00   625.00   500.00   500.00   500.00   525.00
2000004697192010 19M3106200BELO HORIZONTE                                                                                                                                        MG130000000000000000000001                                                                                                                                                                          3106200BELO HORIZONTE                                                                                                                                        MG1111   655.20   717.60   653.80   838.40ACBEBBCEACDDDCACCBBABCBACDBDDBABCDEBBCEBCDDECBAABACCBABBEEACEABCCBDC*BDEEBDDDBBDDACBECECADEAEDCCEBEAACDECDBAABCCDCBEDAAAEDBDEDDBDDBADADCEEBDCACBABAEBBBEDCDCCAECBDBEDCBEDBBCDDCDEBDE 90 86 94 980ACAEBCCEADADDBACBEBABDEEADEDDBCBCDDBAEEACDDECBAABADCBACBECACEBBCCBDCACDCEBDEDBEEEADBEAECDDDAEDCDDEADCECEEACDECDBDABCCBEBEDABACDBCEDDADDBAAADCEEBDCACBABAEBBAEDCDCDAECBDBDECBBDBBCBDEDEBDEP   875.00   875.00   875.00   750.00   625.00   800.00
2000010657872010 17M3105400BARAO DE COCAIS                                                                                                                                       MG21 000000000000000000003310077223105400BARAO DE COCAIS                                                                                                                                       MG3113105400BARAO DE COCAIS                                                                                                                                       MG1111   622.80   663.30   584.40   580.30DBDEAECBBDDADADCABBEBCBEDDBBCEBBEDDEDDAEECDCDAAEBBCDBDAEACDCEACECBAADDDEEEDDBDBDBAACEEDCBDEDDACCBBECEADADDBBACCCEECADCAACDBEDCDCEBABAAACEEDBDBBCEBCCEACBDCADBCDACEAABCBCDBEDCEDBECCE 92 88 961000ABAECECCDADADABCABBBEDEEAEDBDCCBDDEEADBAECDCDAABBBCCBDAEACBCEABCCBDACCBECDEEBDEDBAAEEEDCDDEDADCDDEDACECECEADEDDBBACCCBEBEBDAACDBCDEDDADABAADCEEBADABCCBDEBBABDCCADAECEDDEBCBBDBBCDBEBEDDEP   750.00   875.00   625.00   875.00   500.00   725.00
2000037955252010 46F3139508MANHUMIRIM                                                                                                                                            MG221000000000000000000013310753883139508MANHUMIRIM                                                                                                                                            MG2113139508MANHUMIRIM                                                                                                                                            MG1111   498.10   425.80   474.00   369.30BACEABCAACADDDDBDBBBBCCDCBBBBEAACCEBBCCECAEDDDEADDACBBDBBEEDCCCCCAAAAACCCBBBBDBBBAABBBBBBCCBBBBEEEECCEAECDBAACCBBBECABEACDCCCBDDDDDDCCCBADEABDDAABDBAABEBBDBEEBACABACAADEBAACAAAECAE 89 85 961000BACEADCAECABDDACBABEBDEDAEECDBCDBDEEABDACEDDCABABDACBAEBCCCBEABCCADBBCCDECEEDBEDBAEAEDECDDEDADCDDEDACECECEADEDDBBACCCBEBEBDAACDBCDEDDADABAADCEEBADABCCBDEBBABDCCADAECEDDEBCBBDBBCDBEBEDDEP   625.00   750.00   500.00   375.00   375.00   525.00
2000011211872010 16F3106200BELO HORIZONTE                                                                                                                                        MG3  000000000000000000001                                                                                                                                                                          3106200BELO HORIZONTE                                                                                                                                        MG1111   592.10   668.20   620.20   724.00BDAEABDAAEABDDAEBAECDDEBCEDDDBBDBBDCDBBADEDDAACDBDACBAEBADDDEAACCACCBCAEDCEDCBECBAEAEDECDDADBCDCEEDAECDBCEBCABCCEEBDACAACDBCEDDCBABAACCCEEBBDABBABAEBBAEBCADDEECEDEBDEDBADBCDBDBECCE 89 85 93 970BACEADCAECABDDACBABEBDEDAEECDBCDBDEEABDACEDDCABABDACBAEBCCCBEABCCADBBCCDECEEDBEDBAEAEDECDDADECDDDEADCEECAECDECDBDABCCEBBEADBACDBCEDDDADBAADACEEBCDABCABAEBBAEDCCDDAECBDDBECBBDBBCDBEBEDDEP   750.00   625.00   625.00   750.00   500.00   650.00
2000006749482010 21F3151206PIRAPORA                                                                                                                                              MG110000000000000000000001                                                                                                                                                                          3151206PIRAPORA                                                                                                                                              MG1111   615.40   716.70   600.80   731.00ADBECACECEDADADCDBDBABDCEECABBCCBDBECBEABADCEAAEBAACBBABEECBEEACACCDBBAEDEECBDCDCABEEDDCEDDACCCCECEEACDDCDBCABCCCEBACCBABDBEEDDDCDBADBBCEEBDBACBABCEBBAACCDAAADBBDDBDACABBCCDDADEBDD 91 87 94 980CABEAACDCEBADADCEBBBADDEAEEBDDCCBDBDAEEADCDCEAABBDACBCABECCBEBACACDBBCCEDECEBDEDAABEEDDCEDDAEDCDDEADCECEEACDECDBDABCCBEBEDABACDBCEDDADDBAAADCEEBDCACBABAEBBAEDCDCDAECBDBDECBBDBBCBDEDEBDEP   875.00   875.00   875.00   875.00   500.00   800.00
2000014802732010 37F2111300SAO LUIS                                                                                                                                              MA110000000000000000000003                                                                                                                                                                          2111300SAO LUIS                                                                                                                                              MA1111   374.90   526.70   521.30   509.90ABABCBCBBCACBCBABACBABCBCCDBBACBACAACDEEBDEBECCBBEAABEDAEDCBEAACCCAEBEDDDDBBEDAECCBDBDBBCCDDEBAEEBECEAADEDCEACECEEEDBCABEDBDACDCDEABBDCCAECABAACCDBEBCBACBDCBCABCBADBBAACDCACBCBCBCA 91 87 961001CABEAACDCEBADADCEBBBADDEAEEBDDCCBDBDAEEADCDCEAABBDACBCABECCBEBACACDBBCCEDECEBDEDAABEEDDCEDEDADCDDEDACECECEADEDDBBACCCBEBEBDAACDBCDEDDADABAADCEEBADABCCBDEBBABDCCADAECEDDEBCBBDBBCDBEBEDDEP   750.00   375.00   500.00   625.00   375.00   525.00
2000040199642010 21M3106705BETIM                                                                                                                                                 MG210000000000000000000002312150823106705BETIM                                                                                                                                                 MG2113106705BETIM                                                                                                                                                 MG1111   559.40   624.20   554.70   599.50CABECACBBADADADCCDBBAEBABCBCDACDECDECBABBCDDAABBBCCCBAACEDCBEEAABCDABDABBE*EEDCCCABCCDDCEACCCCCCEBEAECACCABDADBCEEEEADBABDBCEDDCEEBDADCCEABCBABAABEEDBAEACCCCCCAECCCCCCCCCCCCCCCCDCC 91 87 93 971CABEAACDCEBADADCEBBBADDEAEEBDDCCBDBDAEEADCDCEAABBDACBCABECCBEBACACDBBCCEDECEBDEDAABEEDDCEDADECDDDEADCEECAECDECDBDABCCEBBEADBACDBCEDDDADBAADACEEBCDABCABAEBBAEDCCDDAECBDDBECBBDBBCDBEBEDDEP   750.00   875.00   625.00   750.00   500.00   700.00
2000003545512010 24F2800308ARACAJU                                                                                                                                               SE120000000000000000000003                                                                                                                                                                          2800308ARACAJU                                                                                                                                               SE1111   460.50   460.00   432.20   361.50DAAEEBCEBBADABADDAEAEDCCEADEDEBABAEBCADCEEABCDAEBAAEDAEAEABBBABDDBCBDEABCAADDCCEBABAAEEEEDDDBAACDBBEEABBCBBCCCCECBDCDDAABDADAABAACBBCDBECEBACCACCDCCCCCDCDCABDCECACCCCEBCDDCDEDCDCEE 90 86 95 991ACAEBCCEADADDBACBEBABDEEADEDDBCBCDDBAEEACDDECBAABADCBACBECACEBBCCBDCACDCEBDEDBEEEADBEAECDDEADCDEDDDACEECCAEDEDDBBACCCEBBEBDAACDBCDEDADDABADACEEBBDACCABDEBBABDCCADAECEDEBDCBBDBBCBDEBEDDEP   625.00   750.00   750.00   625.00   625.00   675.00
2000011844492010 19F2922508NAZARE                                                                                                                                                BA110000000000000000000003                                                                                                                                                                          2922508NAZARE                                                                                                                                                BA1111   507.00   556.60   524.70   502.80DADEBBCEAABDECABAEBCDDAECBEDCABDECBBCDAB*BDECBCABBBABACEEBDDEABBEABCADECBADAABBBAADBAADEBEDCEAAAEECAEADCCABCADBCEEEEACBBDDEDBDDEAEBDACECEBCEAABADACDDCCCBCCCADCBEBBDEDBCDADBCCCBEBCE 90 86 93 971ACAEBCCEADADDBACBEBABDEEADEDDBCBCDDBAEEACDDECBAABADCBACBECACEBBCCBDCACDCEBDEDBEEEADBEAECDDADECDDDEADCEECAECDECDBDABCCEBBEADBACDBCEDDDADBAADACEEBCDABCABAEBBAEDCCDDAECBDDBECBBDBBCDBEBEDDEP   750.00   750.00   750.00   625.00   750.00   725.00
2000002342622010 20F5300108BRASILIA                                                                                                                                              DF110000000000000000000000                                                                                                                                                                          5300108BRASILIA                                                                                                                                              DF1111   506.90   663.30   571.90   545.10DBAEDEDBAEBAABBCBEBDECBEBCBBBBBCEAEBCEABCEDBDAABBBBCBAAEADDDEEBCCBECADEECDCDBDBDAACEDDDCDDEAEAACEBECEAACADBBACECBECAACABCDBDDBDDAEABDAACEBCADABBCBDDCABDDBDEBACECDABCDAABEDCADAABCAE 92 88 961001ABAECECCDADADABCABBBEDEEAEDBDCCBDDEEADBAECDCDAABBBCCBDAEACBCEABCCBDACCBECDEEBDEDBAAEEEDCDDEDADCDDEDACECECEADEDDBBACCCBEBEBDAACDBCDEDDADABAADCEEBADABCCBDEBBABDCCADAECEDDEBCBBDBBCDBEBEDDEP  1000.00   750.00  1000.00  1000.00   625.00   875.00
2000009719072010 18F2111300SAO LUIS                                                                                                                                              MA110000000000000000000002                                                                                                                                                                          2111300SAO LUIS                                                                                                                                              MA1111   407.90   470.50   480.10   389.70EBDEBBCCDEABACAECAABDAEAADBECADBABBAECBEDDAADAEEBDCDEAEBBDADBECDABCDEEABCDEAEDBCBADCBAACCAEDEACDECAEECDCCDCCAEBECAECCDDACEBDECDDBBEBDBACAEEDCBAEEECDAAEACCEBDACABDACEDDDBEAEADBDBDAC 89 85 93 971BACEADCAECABDDACBABEBDEDAEECDBCDBDEEABDACEDDCABABDACBAEBCCCBEABCCADBBCCDECEEDBEDBAEAEDECDDADECDDDEADCEECAECDECDBDABCCEBBEADBACDBCEDDDADBAADACEEBCDABCABAEBBAEDCCDDAECBDDBECBBDBBCDBEBEDDEP   500.00   750.00   750.00   750.00   625.00   675.00
2000006846722010 18F2111300SAO LUIS                                                                                                                                              MA110000000000000000000000                                                                                                                                                                          2111300SAO LUIS                                                                                                                                              MA1111   409.10   551.50   383.30   404.50ACEEDACBECBAEDCDBCEDADACCDBDCCADABCBDCDEADDBDBEABCCDBEACEDDEDAADDBABBDCECEDDCEACAABBEADCEABCBEADEDEEDEABEADDAACEDCDCADCADCCCDBCDAEDCABADADBADBAECEBCBADCDBCDEABDDBCBBBCACCBDACDBCBBE 91 87 961000CABEAACDCEBADADCEBBBADDEAEEBDDCCBDBDAEEADCDCEAABBDACBCABECCBEBACACDBBCCEDECEBDEDAABEEDDCEDEDADCDDEDACECECEADEDDBBACCCBEBEBDAACDBCDEDDADABAADCEEBADABCCBDEBBABDCCADAECEDDEBCBBDBBCDBEBEDDEP   750.00   750.00   750.00   750.00   750.00   750.00
2000023122902010 18M1505908PORTO DE MOZ                                                                                                                                          PA110000000000000000000003                                                                                                                                                                          1500503ALMEIRIM                                                                                                                                              PA1111   409.20   506.30   448.10   575.20EEDEBBCDBDBEACECBEADDECADBDCEECDACEECDABBCEDAECBCDDDBABEEADCBADCAAECEECCEEADEECABCEBEBECAEEEEDACEECCDEDCDCCBDDECABCEDDBEACDBEECBCDCDEEDCCEDBDAACBADCDBBEDBEABABEDDBDCCDCCBDDAEBBEBED 90 86 95 991ACAEBCCEADADDBACBEBABDEEADEDDBCBCDDBAEEACDDECBAABADCBACBECACEBBCCBDCACDCEBDEDBEEEADBEAECDDEADCDEDDDACEECCAEDEDDBBACCCEBBEBDAACDBCDEDADDABADACEEBBDACCABDEBBABDCCADAECEDEBDCBBDBBCBDEBEDDEP   500.00   625.00   625.00   500.00   500.00   550.00
2000018695452010 28M2800308ARACAJU                                                                                                                                               SE110000000000000000000003                                                                                                                                                                          2800308ARACAJU                                                                                                                                               SE1111   483.80   649.90   570.30   338.00DBAEBDEEABADCBEBDDAAACCCCCBBBBBDDDDDCCCCCCCCCBCABADCBAADEACDEDCCABDCAEDEEBDDACEDEADBEAECADCCEAECEBEEAAABCDBEACCCEEEEDACBCDACEDDADEEAACEDBDBCCCBDBDAAACBBBBBBBBBBCCCCCCCCAAAAAAEEEEEE 90 86 94 981ACAEBCCEADADDBACBEBABDEEADEDDBCBCDDBAEEACDDECBAABADCBACBECACEBBCCBDCACDCEBDEDBEEEADBEAECDDDAEDCDDEADCECEEACDECDBDABCCBEBEDABACDBCEDDADDBAAADCEEBDCACBABAEBBAEDCDCDAECBDBDECBBDBBCBDEDEBDEP  1000.00  1000.00  1000.00  1000.00   250.00   850.00
2000018300522010 39F2111300SAO LUIS                                                                                                                                              MA110000000000000000000003                                                                                                                                                                          2111300SAO LUIS                                                                                                                                              MA1111   477.60   625.30   576.00   391.70BABEBACBBAEAEADBBDAEDEECBEABEECACECBEDCDACDDCAABBBBDAAAEDCDDCABECBABABAACEEBBDBDBAABEEACDDEDCABCEDEEEEDBCDBCAACCEEBECAAAEDBDEDDDDBBCDADADABDCBCEAEBEEAADBEAEDCBDECBBDDDACBCAAEBBCAAE 92 88 94 981ABAECECCDADADABCABBBEDEEAEDBDCCBDDEEADBAECDCDAABBBCCBDAEACBCEABCCBDACCBECDEEBDEDBAAEEEDCDDDAEDCDDEADCECEEACDECDBDABCCBEBEDABACDBCEDDADDBAAADCEEBDCACBABAEBBAEDCDCDAECBDBDECBBDBBCBDEDEBDEP   875.00   750.00   750.00   875.00   750.00   800.00
2000024246992010 19F3152501POUSO ALEGRE                                                                                                                                          MG110000000000000000000011                                                                                                                                                                          3152501POUSO ALEGRE                                                                                                                                          MG1111   367.90   484.90   523.40   530.30EBDECBBAABDACDCDBCEDEADCEEBACCDBEBCCDCBACACABACCBCADDACCACAADDCCAADCDADCEAAAEAADCACDECEDAADECCACEBBAAEDACABEBCCBEDEDCADABDBEEDDBDDBBABBCEBCDEADBCADECDADBCBDCBCECADBBCDBCEADDCADDCCE 90 86 94 981ACAEBCCEADADDBACBEBABDEEADEDDBCBCDDBAEEACDDECBAABADCBACBECACEBBCCBDCACDCEBDEDBEEEADBEAECDDDAEDCDDEADCECEEACDECDBDABCCBEBEDABACDBCEDDADDBAAADCEEBDCACBABAEBBAEDCDCDAECBDBDECBBDBBCBDEDEBDEP   625.00   625.00   500.00   500.00   500.00   550.00
2000038883742010 20F2211001TERESINA                                                                                                                                              PI210000000000000000000004221048602211001TERESINA                                                                                                                                              PI2112211001TERESINA                                                                                                                                              PI1111   363.30   387.60   407.40   413.40BCDDDCCBBADBCEDEBACDABCDEDBCDCDEDBDACCAECBACDBDEADBEDEAADEDCACCABBDAADDECBBDDDDBEACCADDEBDEBCBABCECEEABCCDECECDCABDCDCCBDDBDDDBCABAEBABCDECABCBACEBDBCCEBCBABEBCDABCDAEAECDCDEDACBDB 91 87 95 991CABEAACDCEBADADCEBBBADDEAEEBDDCCBDBDAEEADCDCEAABBDACBCABECCBEBACACDBBCCEDECEBDEDAABEEDDCEDEADCDEDDDACEECCAEDEDDBBACCCEBBEBDAACDBCDEDADDABADACEEBBDACCABDEBBABDCCADAECEDEBDCBBDBBCBDEBEDDEP   375.00   500.00   375.00   375.00   250.00   375.00
2000028240352010 17F2933307VITORIA DA CONQUISTA                                                                                                                                  BA21 000000000000000000001292776802933307VITORIA DA CONQUISTA                                                                                                                                  BA2112933307VITORIA DA CONQUISTA                                                                                                                                  BA1111   504.30   483.00   427.00   432.00BCDEBDCABCABDAECBADBDEACEACBECAEDCDECAEDCABCDCBEADECBDCBEDBEACAECEBACEDCDBCEBC.DBADEADECADBCCABEDCEAECDBCBACADCEDDCADEBADDBEBDECEACBDAEACDBDEACEDADECBDAECACEDAEBDCEBACEBDABEACBAEDB 89 85 94 981BACEADCAECABDDACBABEBDEDAEECDBCDBDEEABDACEDDCABABDACBAEBCCCBEABCCADBBCCDECEEDBEDBAEAEDECDDDAEDCDDEADCECEEACDECDBDABCCBEBEDABACDBCEDDADDBAAADCEEBDCACBABAEBBAEDCDCDAECBDBDECBBDBBCBDEDEBDEP   875.00   750.00   750.00   875.00   375.00   725.00
2000038806792010 39M3106200BELO HORIZONTE                                                                                                                                        MG3 1000000000000000000013                                                                                                                                                                          3106200BELO HORIZONTE                                                                                                                                        MG1111   461.20   513.60   496.50   492.20BCEEBEC*AEBDCDABECEAAEAECCDEBAAACEEABCBDABECABAEBADABCADACBDEBDABABDDEDBECAAEBBBABEBEAECAEDECABBEBEEECDABDCEACDCDEBECAAAEDECEADBCBDDABCCAEACEACACDBECECDCCEAEEEDACCCDEADEEBCAECABBAE 90 86 94 981ACAEBCCEADADDBACBEBABDEEADEDDBCBCDDBAEEACDDECBAABADCBACBECACEBBCCBDCACDCEBDEDBEEEADBEAECDDDAEDCDDEADCECEEACDECDBDABCCBEBEDABACDBCEDDADDBAAADCEEBDCACBABAEBBAEDCDCDAECBDBDECBBDBBCBDEDEBDEP   625.00   875.00   750.00   625.00   625.00   700.00
2000045531532010 28M2911600GOVERNADOR MANGABEIRA                                                                                                                                 BA110000000000000000000002                                                                                                                                                                          2909802CRUZ DAS ALMAS                                                                                                                                        BA1111   434.10   583.10   465.40   560.90DBBECAEECABAAABBDCDDBCCACADBBEBCAECACCBBABEEEACBBEEDBEAAEEDDBAEDACCECDBECACDBDEDEABDABDCEECCACACEDECEEBABADBACDCDCDBACAAADBBBBBCCACCDBCCADDADABECBBBECCDCBBDEBBCBECACECCCBBDACBBCCDD 91 87 961001CABEAACDCEBADADCEBBBADDEAEEBDDCCBDBDAEEADCDCEAABBDACBCABECCBEBACACDBBCCEDECEBDEDAABEEDDCEDEDADCDDEDACECECEADEDDBBACCCBEBEBDAACDBCDEDDADABAADCEEBADABCCBDEBBABDCCADAECEDDEBCBBDBBCDBEBEDDEP   625.00   875.00   750.00   750.00   625.00   725.00
2000043179132010 32F4315602RIO GRANDE                                                                                                                                            RS120000000000000000000021                                                                                                                                                                          4315602RIO GRANDE                                                                                                                                            RS1111   401.20   518.80   461.40   320.90DEAEECCECCDCABBBCDEDCBDCCCDCEBDBDABDCBBDCBEEBACDBBBDDAAEACBADDACCCDDAECBCABDCADBBAACBADEBBEDCDACEBECAABAACDEACDEDEBCBACAADEECDCBEBECACAAADEAEBDBDABBCABDEBCDDABEB*BEDBABDABCDCCAABCB 92 88 95 991ABAECECCDADADABCABBBEDEEAEDBDCCBDDEEADBAECDCDAABBBCCBDAEACBCEABCCBDACCBECDEEBDEDBAAEEEDCDDEADCDEDDDACEECCAEDEDDBBACCCEBBEBDAACDBCDEDADDABADACEEBBDACCABDEBBABDCCADAECEDEBDCBBDBBCBDEBEDDEP   500.00   750.00   625.00   500.00   625.00   600.00
2000024467262010 17F1100023ARIQUEMES                                                                                                                                             RO21 000000000000000000003110078851100023ARIQUEMES                                                                                                                                             RO2111100023ARIQUEMES                                                                                                                                             RO1111   358.50   463.80   368.10   340.60BDDCECDBDBABCEABDEBACBDACBDCDAEABABDCDCBABDEAD*DBEADBBEDECBDADAEDEDAABADDBCCDCBCADEDADDEBCDBEACBDEDCEEBCEEEAABDBEDEBACDEEBCBADBBECCBEACABCDEDEDCBAEDABCACEEDBCABABCDEDCECADCDECDACBA 91 87 95 991CABEAACDCEBADADCEBBBADDEAEEBDDCCBDBDAEEADCDCEAABBDACBCABECCBEBACACDBBCCEDECEBDEDAABEEDDCEDEADCDEDDDACEECCAEDEDDBBACCCEBBEBDAACDBCDEDADDABADACEEBBDACCABDEBBABDCCADAECEDEBDCBBDBBCBDEBEDDEP   625.00   625.00   500.00   625.00   250.00   525.00
2000027874172010 18F5300108BRASILIA                                                                                                                                              DF21 000000000000000000003530075145300108BRASILIA                                                                                                                                              DF2115300108BRASILIA                                                                                                                                              DF1111   504.70   568.70   547.80   592.50BEBEBACAAEABAABBCCBBDCBBCEDCDBCCEDBDCBBDEBDBEACBBAADBAADEAABEADEAADBBCABDACACACEAABCEBDCCEEECEACBBECAEACCDBEACCBCBBAACAABDBCAEDBCEABACACBECBDADAABBCABCAADEEDBCCEDBBA.AAEDCBBDAACCDE 91 87 95 991CABEAACDCEBADADCEBBBADDEAEEBDDCCBDBDAEEADCDCEAABBDACBCABECCBEBACACDBBCCEDECEBDEDAABEEDDCEDEADCDEDDDACEECCAEDEDDBBACCCEBBEBDAACDBCDEDADDABADACEEBBDACCABDEBBABDCCADAECEDEBDCBBDBBCBDEBEDDEP  1000.00  1000.00   875.00   875.00  1000.00   950.00
2000043435912010 27M5208707GOIANIA                                                                                                                                               GO110000000000000000000003                                                                                                                                                                          5208707GOIANIA                                                                                                                                               GO1111   623.00   661.70   618.40   627.80DECEBBDEADADDBACDBBAEECBCEECDBCBBDCCBCEADDDECBAABADCBADCEEAEBADCACDCCDECEADEDBBCEADBAAECEDDEEADCEBEEACD*CDBEABCCECDEDADBDDECEDDBDEBAABDCEABDDABBABCEBACADCBCDDABDCDBDEBDEBDBBDEACBBD 90 86 94 981ACAEBCCEADADDBACBEBABDEEADEDDBCBCDDBAEEACDDECBAABADCBACBECACEBBCCBDCACDCEBDEDBEEEADBEAECDDDAEDCDDEADCECEEACDECDBDABCCBEBEDABACDBCEDDADDBAAADCEEBDCACBABAEBBAEDCDCDAECBDBDECBBDBBCBDEDEBDEP   750.00   625.00   750.00   750.00   625.00   700.00
2000021243942010 17F2800308ARACAJU                                                                                                                                               SE21 000000000000000000003280184512800308ARACAJU                                                                                                                                               SE2112800308ARACAJU                                                                                                                                               SE1111   351.40   452.50   477.40   430.80BACBDBAB*ABDBCADAACCCBBBBDEDAECECBCCACCABDADABACBDBABCABDBCADEDCCCBDCCEEACDAACDBBCCEBBEDCDDAAEACEEEDEABCEABAACECCBDCADAACCACAEBDCEDBBCBCCDDDDBDCDEECBBBDDEECADCEDDDEDCCCECDCDBDDCCEE 89 85 95 990BACEADCAECABDDACBABEBDEDAEECDBCDBDEEABDACEDDCABABDACBAEBCCCBEABCCADBBCCDECEEDBEDBAEAEDECDDEADCDEDDDACEECCAEDEDDBBACCCEBBEBDAACDBCDEDADDABADACEEBBDACCABDEBBABDCCADAECEDEBDCBBDBBCBDEBEDDEP   750.00   750.00   500.00   500.00   625.00   625.00
2000035259842010 33F1501402BELEM                                                                                                                                                 PA110000000000000000000003                                                                                                                                                                          1501402BELEM                                                                                                                                                 PA1111   458.60   533.70   474.90   467.00DBBBCBCBACDCDADBCCDCDDBBCBBBCCDADCCCCCCCDDCCECEBBEEDBBDDEADBDADEBEDABDEEAECCDDADCABCADACEACACBCBEBCBAAACBDEBACCCBCECBEBBEEDEDADDCCABDBACCDEADEDCDBAEEABBCEEAECDCCBDABCBADCBABCDDACBE 91 87 95 990CABEAACDCEBADADCEBBBADDEAEEBDDCCBDBDAEEADCDCEAABBDACBCABECCBEBACACDBBCCEDECEBDEDAABEEDDCEDEADCDEDDDACEECCAEDEDDBBACCCEBBEBDAACDBCDEDADDABADACEEBBDACCABDEBBABDCCADAECEDEBDCBBDBBCBDEBEDDEP   500.00   500.00   500.00   375.00   625.00   500.00
2000040857362010 19F1721000PALMAS                                                                                                                                                TO110000000000000000000003                                                                                                                                                                          1721000PALMAS                                                                                                                                                TO1111   400.00   424.20   407.40   373.50CBBEEBECBABDACCECDBEABDCACEDDAACDBBDEBADDCADDBBABBEDEDCABAEECDEAECDEADCDBCBEDAEBCAAECAAADADDDDDBEEDAEBDABBCCCCDECDAEBACBDDEDBAA*EEBBEBCCADEBBEEAEEABBABCAAEAABBACEEECAAAEEEACCAAB*BA 92 88 961001ABAECECCDADADABCABBBEDEEAEDBDCCBDDEEADBAECDCDAABBBCCBDAEACBCEABCCBDACCBECDEEBDEDBAAEEEDCDDEDADCDDEDACECECEADEDDBBACCCBEBEBDAACDBCDEDDADABAADCEEBADABCCBDEBBABDCCADAECEDDEBCBBDBBCDBEBEDDEP   500.00   375.00   250.00   375.00   375.00   375.00
2000014395102010 21M5003702DOURADOS                                                                                                                                              MS120000000000000000000001                                                                                                                                                                          5003702DOURADOS                                                                                                                                              MS1111   516.90   648.60   510.40   526.30BCBEDBCDBCABEDACBCEBDCDBCEBCAEAEBEBCABEDABEDDEBABDACDAEBCECDEAADCBDBBCADECEDEEBDCAACEBECDADAEAABEEDABCABCBBCADCCDDEDACAABDADCDDDBEEDDCACDCEADBBDAEBEDABDBDBDCEABCDABCCBABDBACEDAECDD 89 85 93 971BACEADCAECABDDACBABEBDEDAEECDBCDBDEEABDACEDDCABABDACBAEBCCCBEABCCADBBCCDECEEDBEDBAEAEDECDDADECDDDEADCEECAECDECDBDABCCEBBEADBACDBCEDDDADBAADACEEBCDABCABAEBBAEDCCDDAECBDDBECBBDBBCDBEBEDDEP   750.00   625.00   750.00   500.00   625.00   650.00
2000025594152010 22M1501402BELEM                                                                                                                                                 PA110000000000000000000003                                                                                                                                                                          1501402BELEM                                                                                                                                                 PA1111   339.40   541.60   462.90   412.00DDBCBAAEEADBDACAEBACEDCBBDDEADBDBBCBADCCDBAEEECCBAEDBDBAECECBDBEABCCDBECECAEDDEBEACBADECEBDEEABBABAEACEACDBAAAEEBCACDBAADCEEDDBBAEBCBCBABBDCAABEBACBEBEDCADDBCDBDABEBCBDCABCCBAC.BEC 90 86 94 981ACAEBCCEADADDBACBEBABDEEADEDDBCBCDDBAEEACDDECBAABADCBACBECACEBBCCBDCACDCEBDEDBEEEADBEAECDDDAEDCDDEADCECEEACDECDBDABCCBEBEDABACDBCEDDADDBAAADCEEBDCACBABAEBBAEDCDCDAECBDBDECBBDBBCBDEDEBDEP   375.00   500.00   375.00   500.00   500.00   450.00
2000011857232010 17F2806206SALGADO                                                                                                                                               SE11 000000000000000000003                                                                                                                                                                          2803500LAGARTO                                                                                                                                               SE1111   483.60   524.30   496.30   508.60BBDEBBAAEACBCDBEBDACBECBBDBDEBDDCEDEBDAEDBDBDBEACDCCAAEBBABDBCBBCACBBDCBDABCDABDCACBAABCDACBEBACECBEEDBADDCBACCCBAEBCBCBBEBEAEBCDCABDBACADEBDABCCADABACDBBDEBDABDECDBBDACBDBCADDECBD 89 85 961001BACEADCAECABDDACBABEBDEDAEECDBCDBDEEABDACEDDCABABDACBAEBCCCBEABCCADBBCCDECEEDBEDBAEAEDECDDEDADCDDEDACECECEADEDDBBACCCBEBEBDAACDBCDEDDADABAADCEEBADABCCBDEBBABDCCADAECEDDEBCBBDBBCDBEBEDDEP   625.00   750.00   625.00   625.00   500.00   625.00
2000024032322010 24M2927408SALVADOR                                                                                                                                              BA110000000000000000000013                                                                                                                                                                          2927408SALVADOR                                                                                                                                              BA1111   416.30   546.60   494.50   538.40BABEBDBCADDCAABBBBEABDBAEDBCBACEBEACEDBDADCDEAABBDCDBABDEEDDBABCACAACBDADECBEEBDBCACEAACEAEBBDDBEAEEACABCBCDAEBBECBABACAAEDEADBEDABAACDCDEEDAACBACBCDECADDCBABDBEDBBABABDAEABAEDCABE 91 87 94 980CABEAACDCEBADADCEBBBADDEAEEBDDCCBDBDAEEADCDCEAABBDACBCABECCBEBACACDBBCCEDECEBDEDAABEEDDCEDDAEDCDDEADCECEEACDECDBDABCCBEBEDABACDBCEDDADDBAAADCEEBDCACBABAEBBAEDCDCDAECBDBDECBBDBBCBDEDEBDEP   625.00   375.00   250.00   250.00   250.00   350.00
2000008707062010 18M3106200BELO HORIZONTE                                                                                                                                        MG210000000000000000000002310004183106200BELO HORIZONTE                                                                                                                                        MG2113106200BELO HORIZONTE                                                                                                                                        MG1111   386.80   533.40   447.70   529.90ADBEEACADBDBCBCBDCEAECADEDBABACADABBDBDEDACABEAEBAADBADBEADACAADCBCBACACDEADAAEDBAAAAAACDEAACDDEEECDECBCCBEBCAEDEECDCBDAC*DDEBDCDBBCABDCDAEBEABCAAAEAADCCEDBEBABADCBDABCDEDDADCBECAE 89 85 93 971BACEADCAECABDDACBABEBDEDAEECDBCDBDEEABDACEDDCABABDACBAEBCCCBEABCCADBBCCDECEEDBEDBAEAEDECDDADECDDDEADCEECAECDECDBDABCCEBBEADBACDBCEDDDADBAADACEEBCDABCABAEBBAEDCCDDAECBDDBECBBDBBCDBEBEDDEP   375.00   500.00   375.00   375.00   375.00   400.00
2000004218282010 19F3160702SANTOS DUMONT                                                                                                                                         MG110000000000000000000003                                                                                                                                                                          3160702SANTOS DUMONT                                                                                                                                         MG1111   575.50   619.40   593.40   473.30ECBEBBCEDBADCBACCAEABDCAEDABEBADBECBDEABCDDEABAEBACCBADEEAAAECBEACDCAAEEDBADDCAEBAEBEAECDDCEEAACEBBBACDECABCABCCDE.ECADABDBEEDDACDBAABACBCADBDCBBADEBAEDBCEBCEDDCEBDDECABDDCEADBEEDE 90 86 94 981ACAEBCCEADADDBACBEBABDEEADEDDBCBCDDBAEEACDDECBAABADCBACBECACEBBCCBDCACDCEBDEDBEEEADBEAECDDDAEDCDDEADCECEEACDECDBDABCCBEBEDABACDBCEDDADDBAAADCEEBDCACBABAEBBAEDCDCDAECBDBDECBBDBBCBDEDEBDEP   625.00   625.00   875.00   750.00   750.00   725.00
2000031700502010 24M3204906SAO MATEUS                                                                                                                                            ES111000000000000000000003                                                                                                                                                                          3204906SAO MATEUS                                                                                                                                            ES1111   428.90   450.90   362.80   445.20ABDEDEDABCADDEEBDDDABEBCBDEBCBAECDDBACEBCDECDEEBBBBDBCD*CAACEDEBBADCECBDACECDAEEDAEBBDDCEBBDCABECBECBAEDDBCBEDCAABDCACDEEDECABDCBDEDCCECDAEBAAADBBDEDABCBEBDCDADEDACDBDDCBECBADDBBCB 92 88 93 970ABAECECCDADADABCABBBEDEEAEDBDCCBDDEEADBAECDCDAABBBCCBDAEACBCEABCCBDACCBECDEEBDEDBAAEEEDCDDADECDDDEADCEECAECDECDBDABCCEBBEADBACDBCEDDDADBAADACEEBCDABCABAEBBAEDCCDDAECBDDBECBBDBBCDBEBEDDEP   625.00   500.00   625.00   750.00   500.00   600.00
2000000937772010 19F3106200BELO HORIZONTE                                                                                                                                        MG110000000000000000000000                                                                                                                                                                          3106200BELO HORIZONTE                                                                                                                                        MG1111   614.30   636.60   602.90   685.80EBBEEACDCCBADADCBEBBABBAEDBCDEBDBCBACBCADCDCBCCBBCCCBCABECCBEAAAECCDCDDADEDDBDEDCBDEEDACCDDABDCCEEEEACDBCEBACCCCDEBECAABEDBAEADBDEBAABDCEEBDBACBABCEDBAAABBCBEDCDDCDDCBAADDABDDBEDDD 91 87 94 980CABEAACDCEBADADCEBBBADDEAEEBDDCCBDBDAEEADCDCEAABBDACBCABECCBEBACACDBBCCEDECEBDEDAABEEDDCEDDAEDCDDEADCECEEACDECDBDABCCBEBEDABACDBCEDDADDBAAADCEEBDCACBABAEBBAEDCDCDAECBDBDECBBDBBCBDEDEBDEP   875.00   500.00   375.00   500.00   375.00   525.00
2000006393042010 18F3151404PITANGUI                                                                                                                                              MG110000000000000000000001                                                                                                                                                                          3151404PITANGUI                                                                                                                                              MG1111   489.60   543.20   522.50   480.30BABECACBBEDCABBBEBABBBCEBBCBCEABDEBAACCDDCDBCACCBDCADBACEEDDCAEEBCAABACCDABBEDCDAABBADACBDDABAABEBBCACDCCDBEABCEBADEDADBCEADEADDECBEBAACDCBCEABAECACAABABDDCBCDEBDBDCCBAEBADBBBAEBCE 91 87 94 980CABEAACDCEBADADCEBBBADDEAEEBDDCCBDBDAEEADCDCEAABBDACBCABECCBEBACACDBBCCEDECEBDEDAABEEDDCEDDAEDCDDEADCECEEACDECDBDABCCBEBEDABACDBCEDDADDBAAADCEEBDCACBABAEBBAEDCDCDAECBDBDECBBDBBCBDEDEBDEP   625.00   500.00   250.00   375.00   250.00   400.00
2000019929942010 20F3170206UBERLANDIA                                                                                                                                            MG110000000000000000000001                                                                                                                                                                          3170206UBERLANDIA                                                                                                                                            MG1111   461.70   483.50   536.50   462.90CCBEBBCADDDEBDDDEBCADDCCACDACCCBDCDACCBEDEDCDBCCBCDBBDCDBBCDBACDECBCAECBBCBDDECDCAECECDCBDDDEAECEDEEECDBCDBEDCCCDDEDBABAEDECABDBBBBABBBCDBBBAACCDECCAABDDDCADCEDCDDDBABACCDDDDDDDBBD 90 86 94 981ACAEBCCEADADDBACBEBABDEEADEDDBCBCDDBAEEACDDECBAABADCBACBECACEBBCCBDCACDCEBDEDBEEEADBEAECDDDAEDCDDEADCECEEACDECDBDABCCBEBEDABACDBCEDDADDBAAADCEEBDCACBABAEBBAEDCDCDAECBDBDECBBDBBCBDEDEBDEP   625.00   250.00   375.00   375.00   250.00   375.00
2000033298522010 37M3132701ITAMBACURI                                                                                                                                            MG3 1000000000000000000023                                                                                                                                                                          3168606TEOFILO OTONI                                                                                                                                         MG1111   465.20   531.50   386.90   368.70ECBEEDEECBBAACDDCDCCDCCDBCBCDECCDABDCCEDCBDCCABEBDACBADDEBDBAADCCBCBBEBEAEBCCDEDCABDBEBAEAEDCBBBCCCBDAACAECCBCBEDAEEBCCAADCDBDCCBCAEACEEAECEDCDCBDCCDCBECDDBBABABBBEABCCECCBCBECCABE 91 87 95 990CABEAACDCEBADADCEBBBADDEAEEBDDCCBDBDAEEADCDCEAABBDACBCABECCBEBACACDBBCCEDECEBDEDAABEEDDCEDEADCDEDDDACEECCAEDEDDBBACCCEBBEBDAACDBCDEDADDABADACEEBBDACCABDEBBABDCCADAECEDEBDCBBDBBCBDEBEDDEP   375.00   625.00   625.00   625.00   500.00   550.00
2000021113582010 21M3105608BARBACENA                                                                                                                                             MG110000000000000000000002                                                                                                                                                                          3105608BARBACENA                                                                                                                                             MG1111   431.80   520.60   516.40   473.90BEEEACEBBDBACDDCCAEEDDBDCBCBDCDADBEDCAEBEBDDBACDBBAEDEACDBDDEAACCBCDBBDEDEADEDEDAACBDCEEDACEEAAAEEDCEAAACACAACCCEEEDDCABEDDDAECEEAABABDCDEDBABBCDDDDDABCDDBEACECDCCBDDBDDEAABDEBBCDE 92 88 961001ABAECECCDADADABCABBBEDEEAEDBDCCBDDEEADBAECDCDAABBBCCBDAEACBCEABCCBDACCBECDEEBDEDBAAEEEDCDDEDADCDDEDACECECEADEDDBBACCCBEBEBDAACDBCDEDDADABAADCEEBADABCCBDEBBABDCCADAECEDDEBCBBDBBCDBEBEDDEP   625.00   625.00   625.00   625.00   625.00   625.00
2000000559992010 20F4314407PELOTAS                                                                                                                                               RS110000000000000000000001                                                                                                                                                                          4314407PELOTAS                                                                                                                                               RS1111   520.90   528.50   551.30   504.60BBCEBCCABCADBEBCBEBEDDEACBABDBABEBCDBDCECECADDBABCCBDAEBDCBDCADBCACADDADBBEACBDDBBECABDEABEBEEACEEBCAEDDCDCBACCCBEECBDCADDBADECBCDABDDDCEECBEEDBBADEABBEDDACECDDDEDBEDACDAAECCBBCBDD 89 85 95 990BACEADCAECABDDACBABEBDEDAEECDBCDBDEEABDACEDDCABABDACBAEBCCCBEABCCADBBCCDECEEDBEDBAEAEDECDDEADCDEDDDACEECCAEDEDDBBACCCEBBEBDAACDBCDEDADDABADACEEBBDACCABDEBBABDCCADAECEDEBDCBBDBBCBDEBEDDEP   625.00   500.00   500.00   625.00   375.00   525.00
2000045692552010 23M1506807SANTAREM                                                                                                                                              PA110000000000000000000001                                                                                                                                                                          1506807SANTAREM                                                                                                                                              PA1111   346.70   380.10   381.90   388.20CEEBCEABABBCCDAEAABAACABECCCAACCCCDBCBBDBEBCBBDAACACDACAEBDCBCBCDBBBBCCCCCCECBCABCBBABBBBAABEBDAEEEEABACCECABEACCCDCAECEAAEDCBAADCCBBBABEBBCBBCDCDCEABBBCBAAACEBCECBDACBBCBBABDDEECA 89 85 93 971BACEADCAECABDDACBABEBDEDAEECDBCDBDEEABDACEDDCABABDACBAEBCCCBEABCCADBBCCDECEEDBEDBAEAEDECDDADECDDDEADCEECAECDECDBDABCCEBBEADBACDBCEDDDADBAADACEEBCDABCABAEBBAEDCCDDAECBDDBECBBDBBCDBEBEDDEP   625.00   625.00   625.00   625.00   500.00   600.00
2000029262932010 27F2922300MURITIBA                                                                                                                                              BA120000000000000000000003                                                                                                                                                                          2909802CRUZ DAS ALMAS                                                                                                                                        BA1111   392.70   386.20   347.60   334.10AACEBBCAACBAACDBCAECABAECBEECAAAABDECECBABADBDBAAECDEEEBCEDBABCCDBADBCAAABEEEADBBCBEBAAAEACCACEEABBBBEECCECAAECEAADCDAECABBCACBECDADBBABADDAECCDAABAEAAEAEADBCAADAAABDABBECCABAADAAE 89 85 961000BACEADCAECABDDACBABEBDEDAEECDBCDBDEEABDACEDDCABABDACBAEBCCCBEABCCADBBCCDECEEDBEDBAEAEDECDDEDADCDDEDACECECEADEDDBBACCCBEBEBDAACDBCDEDDADABAADCEEBADABCCBDEBBABDCCADAECEDDEBCBBDBBCDBEBEDDEP   625.00   625.00   500.00   500.00   500.00   550.00
2000012216922010 17F2208403PIRIPIRI                                                                                                                                              PI21 000000000000000000003220104672208403PIRIPIRI                                                                                                                                              PI2112208403PIRIPIRI                                                                                                                                              PI1111   535.30   612.20   545.60   485.50BBAEDBCDBBADEDDCBCACDDAACEECDBDABADCDBDCDADBCAAABDCCBAEEDEDBEBBECEDDBDAECCECDDEEBCDCEDECDBEBEAACDECABCDCCDBCABBCCDEDACDAEDECEABDABBADDACBACDDCACBBDDEAAADCDBCCADCDBDDCCABDAACBABCDDE 89 85 93 971BACEADCAECABDDACBABEBDEDAEECDBCDBDEEABDACEDDCABABDACBAEBCCCBEABCCADBBCCDECEEDBEDBAEAEDECDDADECDDDEADCEECAECDECDBDABCCEBBEADBACDBCEDDDADBAADACEEBCDABCABAEBBAEDCCDDAECBDDBECBBDBBCDBEBEDDEP   875.00   750.00   500.00   750.00   500.00   675.00
2000003305022010 19F3106200BELO HORIZONTE                                                                                                                                        MG110000000000000000000003                                                                                                                                                                          3106200BELO HORIZONTE                                                                                                                                        MG1111   507.60   605.60   593.70   704.20BAEEBBCEBAEADADCCBECADDAEABDECABDCDBEDAEECDDBAABABBCBDCEACDBADACCBAADAEECDBBECBCEAACEADCDDAEEDACECBCEAAEADBEACCCDEBEBAAABEBCDEDCEBEBDADCEEBADACCABBEDBBCDCDDBDAEEDBDAADEEBBADBDBEDDD 92 88 961001ABAECECCDADADABCABBBEDEEAEDBDCCBDDEEADBAECDCDAABBBCCBDAEACBCEABCCBDACCBECDEEBDEDBAAEEEDCDDEDADCDDEDACECECEADEDDBBACCCBEBEBDAACDBCDEDDADABAADCEEBADABCCBDEBBABDCCADAECEDDEBCBBDBBCDBEBEDDEP   875.00   875.00   875.00   875.00   750.00   850.00
2000039608442010 20F4307005ERECHIM                                                                                                                                               RS110000000000000000000001                                                                                                                                                                          4307005ERECHIM                                                                                                                                               RS1111   475.80   602.20   577.80   531.90BEAEAAADEACDDBBDBAEAAAAAADAAABCABAABAAAAADDBDABDBCADAAEBAADBCAACCBDBBADCECEBACBEAABAADECEADBEADCEEEAECDCCDCCABCCEBBCABDBEDBBBDDEACBAAADCECEBBAACAABEDBACCCBCAACDECDDDEAABDBACECDDDDD 89 85 93 971BACEADCAECABDDACBABEBDEDAEECDBCDBDEEABDACEDDCABABDACBAEBCCCBEABCCADBBCCDECEEDBEDBAEAEDECDDADECDDDEADCEECAECDECDBDABCCEBBEADBACDBCEDDDADBAADACEEBCDABCABAEBBAEDCCDDAECBDDBECBBDBBCDBEBEDDEP   500.00   625.00   625.00   500.00   375.00   525.00
2000023131122010 19F2111300SAO LUIS                                                                                                                                              MA210000000000000000000001212398432111300SAO LUIS                                                                                                                                              MA4112111300SAO LUIS                                                                                                                                              MA1111   453.30   504.70   451.30   417.60BBDCAABBCAEADAABCCEEECECDBDDBEEBCBBCABBDEBDBBECCBBAEBEAEECCAEECCAEEBDCDDBBECCEEDEAADADDCCBEDCBABDCECEADCCEBEACDEDCBECCEAEDEEDBCBDCDECDACBECCBEBACAACDBEDACBCDCBDACDBDACBCDDBCCBCDCDE 92 88 95 991ABAECECCDADADABCABBBEDEEAEDBDCCBDDEEADBAECDCDAABBBCCBDAEACBCEABCCBDACCBECDEEBDEDBAAEEEDCDDEADCDEDDDACEECCAEDEDDBBACCCEBBEBDAACDBCDEDADDABADACEEBBDACCABDEBBABDCCADAECEDEBDCBBDBBCBDEBEDDEP   750.00   625.00   625.00   500.00   500.00   600.00
2000032065282010 28F3170206UBERLANDIA                                                                                                                                            MG110000000000000000000003                                                                                                                                                                          3170206UBERLANDIA                                                                                                                                            MG1111   489.50   501.20   514.60   462.40EAEEEB.AABEDEBECCAEABDEEDBCECBABAAACBABBDEDBBBAABCCDBBDDAAABBACDABCACDBCEAADDCCACADBEBADABDEADECEDAAACDCCACEAAAEACAEDA.AEDBABBD.CCBADCACBAEEDABAABBBDCEBEDBDACAADCDABADABAEECAAEBBAD 90 86 94 980ACAEBCCEADADDBACBEBABDEEADEDDBCBCDDBAEEACDDECBAABADCBACBECACEBBCCBDCACDCEBDEDBEEEADBEAECDDDAEDCDDEADCECEEACDECDBDABCCBEBEDABACDBCEDDADDBAAADCEEBDCACBABAEBBAEDCDCDAECBDBDECBBDBBCBDEDEBDEP   375.00   250.00   250.00   375.00   250.00   300.00
2000018619882010 27M2927408SALVADOR                                                                                                                                              BA110000000000000000000002                                                                                                                                                                          2927408SALVADOR                                                                                                                                              BA1111   385.10   345.80   343.10   426.90BCDCCCCCCDDCCBDCBBBCACCCEDCDAECDCCCCDCEDDBBADECCAACCEBCCABDCDCDCCBDCCDCAECCCCDBCCBCBCDCDCDBBCCCCDCCDBCECEACCCCBECDDCCACCCDBCCDBBCCDBABCBCACCDBBCBCDBCCBBCDCDBCBBBCBCCCBCBCCCBCCBCCCC 91 87 93 971CABEAACDCEBADADCEBBBADDEAEEBDDCCBDBDAEEADCDCEAABBDACBCABECCBEBACACDBBCCEDECEBDEDAABEEDDCEDADECDDDEADCEECAECDECDBDABCCEBBEADBACDBCEDDDADBAADACEEBCDABCABAEBBAEDCCDDAECBDDBECBBDBBCDBEBEDDEP   625.00   750.00   500.00   500.00   750.00   625.00
2000027437222010 21F3162906SAO JOAO NEPOMUCENO                                                                                                                                   MG110000000000000000000000                                                                                                                                                                          3136702JUIZ DE FORA                                                                                                                                          MG1111   572.80   673.00   615.60   630.80BCAEEACDEBABDDBCDBBBEEDCEEDBCBBBBECBCBDECCDDCABEBCADBAEBBCEBEAADCCDBDDCDEEDEDBEDBACCADECDDEBBEACEBCCAEDDCDBAACCCAEBCDDAACDBEDEDECDABADBCEECCDADCABBEDACCBDCDCDDBCDDCAABBDBCDDDABECBE 89 85 95 991BACEADCAECABDDACBABEBDEDAEECDBCDBDEEABDACEDDCABABDACBAEBCCCBEABCCADBBCCDECEEDBEDBAEAEDECDDEADCDEDDDACEECCAEDEDDBBACCCEBBEBDAACDBCDEDADDABADACEEBBDACCABDEBBABDCCADAECEDEBDCBBDBBCBDEBEDDEP   750.00   625.00   750.00   750.00   375.00   650.00
2000023610522010 21M5208707GOIANIA                                                                                                                                               GO110000000000000000000000                                                                                                                                                                          5208707GOIANIA                                                                                                                                               GO1111   633.20   687.20   569.10   751.70ABCECECEEADADADCABDABDBBCCDDDCCCDCCEADEBECDCDAABBBBCBDCEAEDCDAACCCAEDDAEEDEE.DBDBAAEEEDCDDEDEAACEBECEAAEBABEACCCBEBABDAADDDDDDDDDDDDDDDCAECADABCABBEBBABECCADAACADADAABEABBCDDEBEDDD 92 88 961001ABAECECCDADADABCABBBEDEEAEDBDCCBDDEEADBAECDCDAABBBCCBDAEACBCEABCCBDACCBECDEEBDEDBAAEEEDCDDEDADCDDEDACECECEADEDDBBACCCBEBEBDAACDBCDEDDADABAADCEEBADABCCBDEBBABDCCADAECEDDEBCBBDBBCDBEBEDDEP   750.00   875.00   875.00   875.00   625.00   800.00
2000023576832010 18M1200401RIO BRANCO                                                                                                                                            AC110000000000000000000001                                                                                                                                                                          1200401RIO BRANCO                                                                                                                                            AC1111   362.20   507.10   517.20   480.50DCEEBDEACDAECAEDDAEDEDBABDACECABDBACDEBBEBECBDEBBCBEBACAEADBEAEBECBCEBEDADBAADCACCBAADDEEEBABBCCEBEACAEBEDBEACCEADBECAAABEEDDEBDCBBBECBCAAADABCDDDAEEBAEDDAECEBCEADBCCCDEBDCDBBBEABE 91 87 961000CABEAACDCEBADADCEBBBADDEAEEBDDCCBDBDAEEADCDCEAABBDACBCABECCBEBACACDBBCCEDECEBDEDAABEEDDCEDEDADCDDEDACECECEADEDDBBACCCBEBEBDAACDBCDEDDADABAADCEEBADABCCBDEBBABDCCADAECEDDEBCBBDBBCDBEBEDDEP   500.00   500.00   500.00   625.00   500.00   525.00
2000016753772010 17M5211800JARAGUA                                                                                                                                               GO21 000000000000000000003520246105211800JARAGUA                                                                                                                                               GO2115211800JARAGUA                                                                                                                                               GO1111   476.00   432.80   427.70   450.50BCDEDECBCCADDCDCCDBCDCDCBDCCCDEABCDDCDDCEADCABCBDABDCDCEBADECCEBBBDEDCABCCDBDDCCAABDECDCECDCCCCAEDECCDBCADCDBCDECDBBEDAACDDAECCDCABDCEBCABCABDCCDBBECDACEDBCBDCDBECBDBCBDBBCEAECABCE 91 87 961001CABEAACDCEBADADCEBBBADDEAEEBDDCCBDBDAEEADCDCEAABBDACBCABECCBEBACACDBBCCEDECEBDEDAABEEDDCEDEDADCDDEDACECECEADEDDBBACCCBEBEBDAACDBCDEDDADABAADCEEBADABCCBDEBBABDCCADAECEDDEBCBBDBBCDBEBEDDEP   750.00   500.00   500.00   375.00   500.00   525.00
2000024259082010 51M2910800FEIRA DE SANTANA                                                                                                                                      BA130000000000000000000003                                                                                                                                                                          2910800FEIRA DE SANTANA                                                                                                                                      BA1111   600.20   727.30   554.40   553.20AEBEAACDBEBEDADDCBDBBDCDCCBBCEBCBDADDEECDDDCEAABBEACBEABEECDEBACBCDBBBCEEECEBDEEAABCEDACEDEADCDCEEECAADCADBBDCDCDBBEDCAADCBCCDCCECCBCDCCECCCDAACBBDECCCDCBCCCBCBCDCCCCEBDCCCCABCDADD 91 87 95 990CABEAACDCEBADADCEBBBADDEAEEBDDCCBDBDAEEADCDCEAABBDACBCABECCBEBACACDBBCCEDECEBDEDAABEEDDCEDEADCDEDDDACEECCAEDEDDBBACCCEBBEBDAACDBCDEDADDABADACEEBBDACCABDEBBABDCCADAECEDEBDCBBDBBCBDEBEDDEP   875.00   625.00   625.00   500.00   375.00   600.00
2000016647502010 23M5002605CAMAPUA                                                                                                                                               MS110000100000010000000001                                                                                                                                                                          5002605CAMAPUA                                                                                                                                               MS1111   453.30   465.50   422.70   475.70EAAEBACADBDDBBAEDCECDBDBCEBDDADECAECCADBCEDBCABACDEDAAECECDDBEACEADDBEECBCEACDEDBADCAACBBACEAEACBCEAACDBEBCDAADCEAECACAAEDABDABDCDBAECACADECDADCCBDCDAACDDECCDCADEBBCDDBCEDDBAACDDCE 89 85 95 991BACEADCAECABDDACBABEBDEDAEECDBCDBDEEABDACEDDCABABDACBAEBCCCBEABCCADBBCCDECEEDBEDBAEAEDECDDEADCDEDDDACEECCAEDEDDBBACCCEBBEBDAACDBCDEDADDABADACEEBBDACCABDEBBABDCCADAECEDEBDCBBDBBCBDEBEDDEP   875.00   750.00   750.00   625.00   750.00   750.00
2000021096522010 39M4300406ALEGRETE                                                                                                                                              RS110000000000000000000011                                                                                                                                                                          4300406ALEGRETE                                                                                                                                              RS1111   473.20   582.20   433.00   456.90DBAEEACAAACADBDBEBEDCDABAEEADECBDEBCADDBADADEABABADCDDEEDBDABBACCBDEACBECEEDEEEDBAAAEEDCBDEAEBDBAAECAAECCECDADAEDEEDEECAADDDAEDDDCCDDCACEDCAEDBDEBCBDEDDBDACDADACDBEDECDECDDCCEAECBE 92 88 961001ABAECECCDADADABCABBBEDEEAEDBDCCBDDEEADBAECDCDAABBBCCBDAEACBCEABCCBDACCBECDEEBDEDBAAEEEDCDDEDADCDDEDACECECEADEDDBBACCCBEBEBDAACDBCDEDDADABAADCEEBADABCCBDEBBABDCCADAECEDDEBCBBDBBCDBEBEDDEP   500.00   500.00   500.00   375.00   375.00   450.00
2000015573812010 20F4314407PELOTAS                                                                                                                                               RS210000000000000000000001431018364314407PELOTAS                                                                                                                                               RS2114314407PELOTAS                                                                                                                                               RS1111   474.50   519.80   511.30   441.10DBAEAACAAAEECBDBABDEDDEBDCCBCCDCDABBBCDDCBDAEECEBBBABCCEAEDADACCCAEADAADDEADDADDAADAEEDEAADEEAACECBCEEDCCDCAACABAEEDDEABBDBCBEDECBABACBCADEADECCAECACACDCBCAAAEBCBABEEAAEDABACAAACAE 92 88 95 990ABAECECCDADADABCABBBEDEEAEDBDCCBDDEEADBAECDCDAABBBCCBDAEACBCEABCCBDACCBECDEEBDEDBAAEEEDCDDEADCDEDDDACEECCAEDEDDBBACCCEBBEBDAACDBCDEDADDABADACEEBBDACCABDEBBABDCCADAECEDEBDCBBDBBCBDEBEDDEP   875.00   750.00   875.00   875.00   750.00   825.00
2000006751502010 22M1100205PORTO VELHO                                                                                                                                           RO110000000000000000000002                                                                                                                                                                          1100205PORTO VELHO                                                                                                                                           RO1111   511.20   543.30   510.50   466.50BCAEBDACECBBCCDCDCAECDBEBBAEDBBCBADCEBBBCBDDCABABAEDDBEBAEBBEAAECACCABBAECBBCAEDBCAECDDBCDBDEACCEDBAACDECDCC.BECEABDACBACDAEBDCAEBDEACCADCBECADEBADCBEAEDCABBACAEDCCCCDEDCBACDABEDBD 89 85 93 971BACEADCAECABDDACBABEBDEDAEECDBCDBDEEABDACEDDCABABDACBAEBCCCBEABCCADBBCCDECEEDBEDBAEAEDECDDADECDDDEADCEECAECDECDBDABCCEBBEADBACDBCEDDDADBAADACEEBCDABCABAEBBAEDCCDDAECBDDBECBBDBBCDBEBEDDEP   750.00   750.00   750.00   625.00   625.00   700.00
2000013809322010 17F4314902PORTO ALEGRE                                                                                                                                          RS21 000000000000000000001431087334314902PORTO ALEGRE                                                                                                                                          RS2114314902PORTO ALEGRE                                                                                                                                          RS1111   570.00   634.20   619.50   656.70BABEBACCBEBA*ADCADDBEEBBBDECDBCDBCBDDBECDECBEAABBDACBEACEACCEADEACAEBDADDEBAACEECABAADDCEDEADDECEEBCAEDCDABBACCCCDBEDCAACDECDEDBDDABDDDCBEBBDABCABDEEBDADCDEACDEDDAACEBCEBBCADCAECAD 91 87 95 990CABEAACDCEBADADCEBBBADDEAEEBDDCCBDBDAEEADCDCEAABBDACBCABECCBEBACACDBBCCEDECEBDEDAABEEDDCEDEADCDEDDDACEECCAEDEDDBBACCCEBBEBDAACDBCDEDADDABADACEEBBDACCABDEBBABDCCADAECEDEBDCBBDBBCBDEBEDDEP   750.00   625.00   625.00   625.00   750.00   675.00
2000014140992010 28F5003702DOURADOS                                                                                                                                              MS111000000000000000000001                                                                                                                                                                          5003702DOURADOS                                                                                                                                              MS1111   380.10   450.70   335.90   427.50BCDBCDC.CBCBCDCCBCBCCABCBCDBBBBCDCCDBDBDBCDBDCAABCEDBEABAAEDBAAC.BBBBBAEEBCDDDDBBA.BABABAEBAAAAEABEBAABCCEEAEEECACDCCDBDDBCBCDBCBDDCCDDCBCCEEECBBECCDCABBCCBACADEEEEECACDBDCBDBDBACB 90 86 94 980ACAEBCCEADADDBACBEBABDEEADEDDBCBCDDBAEEACDDECBAABADCBACBECACEBBCCBDCACDCEBDEDBEEEADBEAECDDDAEDCDDEADCECEEACDECDBDABCCBEBEDABACDBCEDDADDBAAADCEEBDCACBABAEBBAEDCDCDAECBDBDECBBDBBCBDEDEBDEP   750.00   500.00   375.00   375.00   250.00   450.00
2000044159852010 21M3168002TAIOBEIRAS                                                                                                                                            MG110000000000000000000003                                                                                                                                                                          3168002TAIOBEIRAS                                                                                                                                            MG1111   453.30   547.30   519.30   548.80CBDEBCABDBDBADAABDAAAECDBCBACACBCCABDEABCBAEBBAEBADCBDDDEEACBCDDACDCDDBBECDDAEEDAAABAAEDCCCEAADCEBECAEDBAEBAACDCCEEEBCAACDBEBECDCABBABDCEEECAAEBEBDDBACEADCDBBCAEDDBEAABDDDEBACBBCDD 90 86 95 991ACAEBCCEADADDBACBEBABDEEADEDDBCBCDDBAEEACDDECBAABADCBACBECACEBBCCBDCACDCEBDEDBEEEADBEAECDDEADCDEDDDACEECCAEDEDDBBACCCEBBEBDAACDBCDEDADDABADACEEBBDACCABDEBBABDCCADAECEDEBDCBBDBBCBDEBEDDEP   625.00   375.00   500.00   625.00   375.00   500.00
2000026367142010 19M2211001TERESINA                                                                                                                                              PI210000000000000000001003220268942211001TERESINA                                                                                                                                              PI2112211001TERESINA                                                                                                                                              PI1111   540.70   523.20   485.50   543.70EBBEBBCDDDADEBACDCBAACBCACEADBACBBCBADEBDBDEEDEABABCBABDECACEADCDAEBEDECDAEDAABDCAEDCAEEDEACDADCBEBAACACCCCAAEAEEADADBAAADBEEDBCCABADDDCDBDADABCABACDCEEEDBCDBDCDCEDAACBDCADBDEDDCCB 90 86 93 971ACAEBCCEADADDBACBEBABDEEADEDDBCBCDDBAEEACDDECBAABADCBACBECACEBBCCBDCACDCEBDEDBEEEADBEAECDDADECDDDEADCEECAECDECDBDABCCEBBEADBACDBCEDDDADBAADACEEBCDABCABAEBBAEDCCDDAECBDDBECBBDBBCDBEBEDDEP   500.00   500.00   375.00   625.00   500.00   500.00
2000027675232010 17M2928208SANTANA                                                                                                                                               BA21 000000000000000000003290154132928208SANTANA                                                                                                                                               BA2112928208SANTANA                                                                                                                                               BA1111   387.70   528.90   429.00   433.50AAEBBABEACEBCDBDBBABDCCACEBBDCCBECEBCBADECCDBCABBBBDCDABBCAADEACCCBEABBADDEBDAACBAAAEBEEBDEAEEDAEAEECAABCDACBCBBBEEAAACBADECCABDBEAEAEACCBCDBACCBBBCEACBCDAAECBDCBDCDCBCBDBCCCDCCBCC 92 88 961001ABAECECCDADADABCABBBEDEEAEDBDCCBDDEEADBAECDCDAABBBCCBDAEACBCEABCCBDACCBECDEEBDEDBAAEEEDCDDEDADCDDEDACECECEADEDDBBACCCBEBEBDAACDBCDEDDADABAADCEEBADABCCBDEBBABDCCADAECEDDEBCBBDBBCDBEBEDDEP   625.00   500.00   625.00   625.00   375.00   550.00
2000016200042010 21F3106200BELO HORIZONTE                                                                                                                                        MG110000000000000000000001                                                                                                                                                                          3106200BELO HORIZONTE                                                                                                                                        MG1111   446.60   496.40   468.00   502.00BDEEBBEBDBCDCABAEAEEBACAAAECDBAEDCACDEECDEBECBEBAAEDDDEAEAADBABCABDCAAABCAAEAEEEDADBAABCAEAEEAEBEBBEACACEDCAACABECEEBAEAADEAECADCDDCDAACDDCBCCCBBEAEACACACAABCEECDDBDBBCDCBCCCADDBDD 90 86 94 981ACAEBCCEADADDBACBEBABDEEADEDDBCBCDDBAEEACDDECBAABADCBACBECACEBBCCBDCACDCEBDEDBEEEADBEAECDDDAEDCDDEADCECEEACDECDBDABCCBEBEDABACDBCEDDADDBAAADCEEBDCACBABAEBBAEDCDCDAECBDBDECBBDBBCBDEDEBDEP   750.00   750.00   750.00   625.00   625.00   700.00
2000018490072010 20F1501402BELEM                                                                                                                                                 PA110000000000000000000003                                                                                                                                                                          1501402BELEM                                                                                                                                                 PA1111   494.60   513.40   483.40   349.50ACAEBECDEBADBDABECEAECDBDBACDBDCBEBEDACEBEDCABDEBDBBDEEBBDCDBEACDABCBEAAECDBDBADAAECEAEDBDEAEADBECAAEBACECEAACBCBEDAABACCDBEEABCAEBCADCADBEEABABDEAECABCBCEDEABECDADEBAACDEBACDEDACE 89 85 93 971BACEADCAECABDDACBABEBDEDAEECDBCDBDEEABDACEDDCABABDACBAEBCCCBEABCCADBBCCDECEEDBEDBAEAEDECDDADECDDDEADCEECAECDECDBDABCCEBBEADBACDBCEDDDADBAADACEEBCDABCABAEBBAEDCCDDAECBDDBECBBDBBCDBEBEDDEP   625.00   750.00   625.00   500.00   375.00   575.00
2000030510652010 22F2902104ARACI                                                                                                                                                 BA210000000000000000000003294178802902104ARACI                                                                                                                                                 BA2112902104ARACI                                                                                                                                                 BA1111   376.60   357.80   350.00   354.10EEEEBCAAEBBACACBEECABCCBDDADCCADEABBCDDBDEABEBDBADADDCBBCBDCCDACDD.EDEABAABDCDDACAEAAABECCEBCB*EECB*B*CCEAAEBEEEDEEDEDACDEEDADBDABAECBBDBBCDCEEABABEEBCEBDDAAEEDDBECACEDECDEABACDBDE 90 86 95 991ACAEBCCEADADDBACBEBABDEEADEDDBCBCDDBAEEACDDECBAABADCBACBECACEBBCCBDCACDCEBDEDBEEEADBEAECDDEADCDEDDDACEECCAEDEDDBBACCCEBBEBDAACDBCDEDADDABADACEEBBDACCABDEBBABDCCADAECEDEBDCBBDBBCBDEBEDDEP   625.00   750.00   500.00   750.00   500.00   625.00
2000020972322010 26F5003702DOURADOS                                                                                                                                              MS120000000000000000000001                                                                                                                                                                          5003702DOURADOS                                                                                                                                              MS1111   484.30   505.10   414.30   366.70BCAEEACEAAADCAABBDEDCDCCEECDCDACBCDEACEECCDADCCEBCCBBDEBBACBDDACBEDBAEAAEBACAECEBAAAEADCDDEEDAABDCEEDBBCCCCCAACECCECCABAAEEDCCBDEEACDBBABBCDEECAAEDCAADEBCCECECECBDADDAACDCACCBBDCAE 89 85 94 980BACEADCAECABDDACBABEBDEDAEECDBCDBDEEABDACEDDCABABDACBAEBCCCBEABCCADBBCCDECEEDBEDBAEAEDECDDDAEDCDDEADCECEEACDECDBDABCCBEBEDABACDBCEDDADDBAAADCEEBDCACBABAEBBAEDCDCDAECBDBDECBBDBBCBDEDEBDEP   625.00   500.00   375.00   500.00   375.00   475.00
2000010677392010 23M3153707QUARTEL GERAL                                                                                                                                         MG110000000000000000000003                                                                                                                                                                          3100203ABAETE                                                                                                                                                MG1111   580.70   602.10   539.90   572.00BECEABCDECADDDADBAEEDBACBECECEBABBAEACBCCEDDCCBABBECAADBBAADACAECEABDBACECECDBBCBABAADECDDBABDCCEABCACABCBCDABEAACDDCADAADBCEADBEEBAABBCDEEDCAABABDECACDBDBADBDBADCEBABAEACDAABEEEAE 89 85 94 980BACEADCAECABDDACBABEBDEDAEECDBCDBDEEABDACEDDCABABDACBAEBCCCBEABCCADBBCCDECEEDBEDBAEAEDECDDDAEDCDDEADCECEEACDECDBDABCCBEBEDABACDBCEDDADDBAAADCEEBDCACBABAEBBAEDCDCDAECBDBDECBBDBBCBDEDEBDEP   750.00   750.00   625.00   750.00   500.00   675.00
2000037030562010 28F2111300SAO LUIS                                                                                                                                              MA110000000000000000000002                                                                                                                                                                          2111300SAO LUIS                                                                                                                                              MA1111   525.60   649.50   569.40   522.90ECBEBDCBDEBBACDCEDBBBCCCCCCCCCBBCCCCCCCBDDDCEAABBCACBADBEEDBEEACCCABDDBEDAEDCDADEABCEDDCEABCECCCEBBCEAAECDCACCCADEBDAEAACDBCEEDDEDABABDCBAEAEACBDBBBBBCCCCCCCCCBBBBBBAAAAAEEEDABECBD 91 87 961001CABEAACDCEBADADCEBBBADDEAEEBDDCCBDBDAEEADCDCEAABBDACBCABECCBEBACACDBBCCEDECEBDEDAABEEDDCEDEDADCDDEDACECECEADEDDBBACCCBEBEBDAACDBCDEDDADABAADCEEBADABCCBDEBBABDCCADAECEDDEBCBBDBBCDBEBEDDEP   750.00   750.00   750.00   875.00   500.00   725.00
2000025482762010 22F2927408SALVADOR                                                                                                                                              BA110000000000000000000002                                                                                                                                                                          2927408SALVADOR                                                                                                                                              BA1111   491.40   605.70   476.80   617.10BEEABDCEBBABBDDDBAACCEDEABCEDBABCDEABDCDEABCDACEBDADBAEBAEDCEDAECEEBADDDDCDBEBBDAABAEDCCDBCEEAEBECEEDAAEEDEEABDCBECDCBAABCBDEDBCCBBABACCECCDAACBABAEAACACCDBDDEAEDBDAACDCEDCACDDCBBD 89 85 94 981BACEADCAECABDDACBABEBDEDAEECDBCDBDEEABDACEDDCABABDACBAEBCCCBEABCCADBBCCDECEEDBEDBAEAEDECDDDAEDCDDEADCECEEACDECDBDABCCBEBEDABACDBCEDDADDBAAADCEEBDCACBABAEBBAEDCDCDAECBDBDECBBDBBCBDEDEBDEP   625.00   750.00   750.00   750.00   750.00   725.00
2000002061402010 28M2918407JUAZEIRO                                                                                                                                              BA110000000000000000000013                                                                                                                                                                          2918407JUAZEIRO                                                                                                                                              BA1111   547.90   627.20   451.80   412.50EEDEBACECBCDDBACCBEBBBDBDDEEEBABAABBBCCCBDEAEBAEBADCDABBECADDACCEBCCDCDCECBDECBECADBEAECADCCCBBCEBCCAEAABBBBCCDDEEEAAABBDDDCCCBBBEEECCCAAABBBCCCDDDEEEBBBCCCDDDEEEAAAEEEAAADDDBBBCCC 90 86 95 990ACAEBCCEADADDBACBEBABDEEADEDDBCBCDDBAEEACDDECBAABADCBACBECACEBBCCBDCACDCEBDEDBEEEADBEAECDDEADCDEDDDACEECCAEDEDDBBACCCEBBEBDAACDBCDEDADDABADACEEBBDACCABDEBBABDCCADAECEDEBDCBBDBBCBDEBEDDEP   500.00   750.00   750.00   750.00   625.00   675.00
2000025970562010 17F2927408SALVADOR                                                                                                                                              BA21 000000000000000000003291826892927408SALVADOR                                                                                                                                              BA2112927408SALVADOR                                                                                                                                              BA1111   433.00   453.60   445.80   467.70EAAECBCDECCBBBAEBAAEDCDEDDEEBACADAADDCDDEBEADAAEBAEAEEAEEAAACDBCEEEACAAEEAEDDEADBAEAAAEAECCEBAABEBECBADCEBBCDDDEEDEEEAAAEEEAEDDAAEBACACCDEDAEAEABECCDADEADDBBADDDDEDBCBAEDEBAAADEACE 89 85 94 980BACEADCAECABDDACBABEBDEDAEECDBCDBDEEABDACEDDCABABDACBAEBCCCBEABCCADBBCCDECEEDBEDBAEAEDECDDDAEDCDDEADCECEEACDECDBDABCCBEBEDABACDBCEDDADDBAAADCEEBDCACBABAEBBAEDCDCDAECBDBDECBBDBBCBDEDEBDEP   500.00   500.00   500.00   500.00   250.00   450.00
2000025783602010 17F4315750RIOZINHO                                                                                                                                              RS21 000000000000000000001431151364315750RIOZINHO                                                                                                                                              RS2114321204TAQUARA                                                                                                                                               RS1111   440.50   512.40   530.20   436.30DDBEEACEDBDBDDACADEDDBDCCDBDECAEAAEBDEBEDADBCDDABCEDBAADDEEDAADCADBEABADDDDEAEDEDADBDADCBDDDEAECEAEAABDBCBBDAEBECEBCDADDEDDCDADDCEBADBECCDDADADADADEDABDDD*BCADCDEDDBBBADBDBBCADBABD 90 86 94 981ACAEBCCEADADDBACBEBABDEEADEDDBCBCDDBAEEACDDECBAABADCBACBECACEBBCCBDCACDCEBDEDBEEEADBEAECDDDAEDCDDEADCECEEACDECDBDABCCBEBEDABACDBCEDDADDBAAADCEEBDCACBABAEBBAEDCDCDAECBDBDECBBDBBCBDEDEBDEP   500.00   500.00   375.00   375.00   375.00   425.00
2000021935122010 24F4317301SANTA VITORIA DO PALMAR                                                                                                                               RS3 1000000000000000000011                                                                                                                                                                          4317301SANTA VITORIA DO PALMAR                                                                                                                               RS1111   552.10   633.40   528.10   567.50BAEEBCAAABABABACCAEABDCAAABACECBBEBAECDDCDDEBBAABABCBAADEAADCABDEAECDEDDECABDABEBADBAAECDDCAEABCEEDAECDDCDCCAACECEEDCBAAADEDCDDDCEBADCDCEEEADACEABBCABCCBEEBBABCADDBAEBCEABAADDADACE 90 86 93 971ACAEBCCEADADDBACBEBABDEEADEDDBCBCDDBAEEACDDECBAABADCBACBECACEBBCCBDCACDCEBDEDBEEEADBEAECDDADECDDDEADCEECAECDECDBDABCCEBBEADBACDBCEDDDADBAADACEEBCDABCABAEBBAEDCCDDAECBDDBECBBDBBCDBEBEDDEP   750.00   750.00   500.00   625.00   500.00   625.00
2000004060662010 23M1504208MARABA                                                                                                                                                PA110000000000000000000001                                                                                                                                                                          1504208MARABA                                                                                                                                                PA1111   519.20   688.00   508.20   590.60ECBABCCDADADDDBCCCEEBECABBDCCCBBCAEBBBDECBBCBBAEBADCBACDECACCACCDABCADDCEBDCEBEECADAEEECADECBCACEEDCAAAACECBBCBCAECEDDAECCECDBCDCEABDABCAEBADABBBBDECABCBDCBAECBDBDACCCCBADCADCBEBCD 90 86 95 990ACAEBCCEADADDBACBEBABDEEADEDDBCBCDDBAEEACDDECBAABADCBACBECACEBBCCBDCACDCEBDEDBEEEADBEAECDDEADCDEDDDACEECCAEDEDDBBACCCEBBEBDAACDBCDEDADDABADACEEBBDACCABDEBBABDCCADAECEDEBDCBBDBBCBDEBEDDEP   875.00   625.00   625.00   500.00   500.00   625.00
2000018124132010 18F5300108BRASILIA                                                                                                                                              DF110000000000000000000003                                                                                                                                                                          5300108BRASILIA                                                                                                                                              DF1111   640.50   709.80   640.00   624.30ECAEBCCEDDADDBACAEDABDBBDBBACCCBADDCDEBECDDECBAABADCBACBEDACEABEDBACEDDCEEDADBEACADBEBEEDDDEEADCEBEEACDECDBDCBCCEEBEAAAAADBBEDDBCBBADADCECCDBACBABEEDBAEBBDABDDCBBDEBCDEDBBCAACCEECD 90 86 94 981ACAEBCCEADADDBACBEBABDEEADEDDBCBCDDBAEEACDDECBAABADCBACBECACEBBCCBDCACDCEBDEDBEEEADBEAECDDDAEDCDDEADCECEEACDECDBDABCCBEBEDABACDBCEDDADDBAAADCEEBDCACBABAEBBAEDCDCDAECBDBDECBBDBBCBDEDEBDEP   750.00  1000.00   625.00   750.00   625.00   750.00
2000010339162010 37F2911709GUANAMBI                                                                                                                                              BA110000000000000000000013                                                                                                                                                                          2911709GUANAMBI                                                                                                                                              BA1111   517.30   487.50   547.00   503.40BEACCBCADBADACACBBACDEBCCCCCDBAABADBDBBABBDCCABB*DACAABABADDCCACCADBBDDEABBDCACEBADDADBCDDDDEAACEBDAECAACDBDABDCBEEAACBAADCEDDDDDEBEABBCDAABDACEAEBDDAACABCBCABCACCCABAAEBBACBEAEACE 89 85 93 971BACEADCAECABDDACBABEBDEDAEECDBCDBDEEABDACEDDCABABDACBAEBCCCBEABCCADBBCCDECEEDBEDBAEAEDECDDADECDDDEADCEECAECDECDBDABCCEBBEADBACDBCEDDDADBAADACEEBCDABCABAEBBAEDCCDDAECBDDBECBBDBBCDBEBEDDEP   750.00   750.00   625.00   625.00   625.00   675.00
2000004031582010 18F3205200VILA VELHA                                                                                                                                            ES211000000000000000000003320385343205200VILA VELHA                                                                                                                                            ES2113205200VILA VELHA                                                                                                                                            ES1111   394.10   444.40   446.80   371.90ECEBADDAACEADCEDADDACDBCBEABADCAAEBDBCDAAADCCCCADBBBCADBDADACDBCEBDDAEBAACDEBDCDCAABACACDAEBEBAAEEEEAAABEDEEACDCBCEDDCABAACDACBEDBAACBDDCDEBCADBBCBBDBCCEEECBBDEACCDECBCDDBDBEBDECBA 92 88 961001ABAECECCDADADABCABBBEDEEAEDBDCCBDDEEADBAECDCDAABBBCCBDAEACBCEABCCBDACCBECDEEBDEDBAAEEEDCDDEDADCDDEDACECECEADEDDBBACCCBEBEBDAACDBCDEDDADABAADCEEBADABCCBDEBBABDCCADAECEDDEBCBBDBBCDBEBEDDEP   625.00   625.00   375.00   375.00   500.00   500.00
2000026215262010 23F3162807SAO JOAO EVANGELISTA                                                                                                                                  MG110000000000000000000003                                                                                                                                                                          3162807SAO JOAO EVANGELISTA                                                                                                                                  MG1111   419.00   515.10   473.70   466.90BECEABCABCCBEECBACAEEECCDECBCDABCEBECDBDEDCEBCBECAACBAEBBABCBCADCBBCEEACDCADADCDBABACBBADAABBADDEDBACADBCECCADCEDCBAEDDABDBDEDCEDEBCDCDCDCDABAACADBEAAEACDDEBBCEADBCDBB*BCDBBCAADEBD 89 85 94 980BACEADCAECABDDACBABEBDEDAEECDBCDBDEEABDACEDDCABABDACBAEBCCCBEABCCADBBCCDECEEDBEDBAEAEDECDDDAEDCDDEADCECEEACDECDBDABCCBEBEDABACDBCEDDADDBAAADCEEBDCACBABAEBBAEDCDCDAECBDBDECBBDBBCBDEDEBDEP   625.00   500.00   500.00   500.00   375.00   500.00
2000038686922010 17F1703842CAMPOS LINDOS                                                                                                                                         TO21 000000000000000000003170276081703842CAMPOS LINDOS                                                                                                                                         TO2111702109ARAGUAINA                                                                                                                                             TO1111   533.90   582.40   544.30   432.50AAEEBCCDDDAEEBADEDEAAECACDBEBBCBCEBCAEEEDDDEBECEBADDBAABECDDBADBABCCEEACEECCDECEBADADAECCDCDEAACEBBAAEDBCDBCCACCEEBDDABBADECEADACEBDAACCDACCCAAABCABABCBECBADCDBCADACBCCDDECBAADCACE 90 86 94 981ACAEBCCEADADDBACBEBABDEEADEDDBCBCDDBAEEACDDECBAABADCBACBECACEBBCCBDCACDCEBDEDBEEEADBEAECDDDAEDCDDEADCECEEACDECDBDABCCBEBEDABACDBCEDDADDBAAADCEEBDCACBABAEBBAEDCDCDAECBDBDECBBDBBCBDEDEBDEP   750.00   625.00   750.00   750.00   750.00   725.00
2000006026552010 30M2111300SAO LUIS                                                                                                                                              MA120000000000000000000003                                                                                                                                                                          2111300SAO LUIS                                                                                                                                              MA1111   441.40   479.80   507.90   417.70EADECECBAEDBDBDBDBCDECBAEBACDCDABDBABEABCBCCCACBBDCDBCAAAEBABABEDDDABCEEDBBADACCAAAEBDABBAEEEDBBEBECAABCEDAAACECECEDDCABADBEDEBCEEABDBADCDEACEACDBBECCECDCEACAEDBDBCDDADBECAADCBDCDE 91 87 961000CABEAACDCEBADADCEBBBADDEAEEBDDCCBDBDAEEADCDCEAABBDACBCABECCBEBACACDBBCCEDECEBDEDAABEEDDCEDEDADCDDEDACECECEADEDDBBACCCBEBEBDAACDBCDEDDADABAADCEEBADABCCBDEBBABDCCADAECEDDEBCBBDBBCDBEBEDDEP   625.00   500.00   500.00   500.00   375.00   500.00
2000021418752010 16F3129905IBITIURA DE MINAS                                                                                                                                     MG3  000000000000000000001                                                                                                                                                                          3102605ANDRADAS                                                                                                                                              MG1111   494.80   506.80   449.40   403.70BEBEBCEDABADBDDBBEDDECBECECBCBAECCBEACECAEDCDEBBCCEECAEBBEACEEDDCEAACDDABCEDEDCDBAAAACDBCACBADCBEBEEECABBAECABCBBCBBCCBABDCBECBCDEBDBACDCCBBDAECCBBCCAADCCBBDCCDBDBEDEABCABCBAAEDBAE 89 85 94 981BACEADCAECABDDACBABEBDEDAEECDBCDBDEEABDACEDDCABABDACBAEBCCCBEABCCADBBCCDECEEDBEDBAEAEDECDDDAEDCDDEADCECEEACDECDBDABCCBEBEDABACDBCEDDADDBAAADCEEBDCACBABAEBBAEDCDCDAECBDBDECBBDBBCBDEDEBDEP   625.00   750.00   750.00   625.00   625.00   675.00
2000017828412010 23F2111300SAO LUIS                                                                                                                                              MA110000000000000000000003                                                                                                                                                                          2111300SAO LUIS                                                                                                                                              MA1111   538.10   563.00   602.30   427.80BBCEAECBBDDABABCBBACBBBDDADBCBABEECEDDCECBDAADABBBCDDCAEDCDDEDCDDCDAACABBDEDEAEDBACCCEACDDEAEEDCEEBCABDCDDBBACCCEEEEBCCABDBCDEDECBABDDACADECBACCBBCDEABDAECDDCEBBACDBBEEDDCCAAEDDDBB 92 88 95 990ABAECECCDADADABCABBBEDEEAEDBDCCBDDEEADBAECDCDAABBBCCBDAEACBCEABCCBDACCBECDEEBDEDBAAEEEDCDDEADCDEDDDACEECCAEDEDDBBACCCEBBEBDAACDBCDEDADDABADACEEBBDACCABDEBBABDCCADAECEDEBDCBBDBBCBDEBEDDEP   625.00   625.00   500.00   625.00   375.00   550.00
2000037626022010 44F3106200BELO HORIZONTE                                                                                                                                        MG110000000000000000000003                                                                                                                                                                          3106200BELO HORIZONTE                                                                                                                                        MG1111   511.00   586.40   543.60   607.00ABBECEEDAADABADBAAEBBCABCEBDDDCBCECBCDCBEBDDEEABBBADDDAEAABDCADEABDDABDDBDEDAEBDBADCEEDCEDADEAACEBCCAABCCDBCACDCDCBEBCAAADEDAEDDAADBAAACEDCADABCCBBCBAAABCACCABEEABCCCBAEBDDABABBABD 92 88 961001ABAECECCDADADABCABBBEDEEAEDBDCCBDDEEADBAECDCDAABBBCCBDAEACBCEABCCBDACCBECDEEBDEDBAAEEEDCDDEDADCDDEDACECECEADEDDBBACCCBEBEBDAACDBCDEDDADABAADCEEBADABCCBDEBBABDCCADAECEDDEBCBBDBBCDBEBEDDEP   875.00   500.00   500.00   625.00   625.00   625.00
2000010651432010 18M3106200BELO HORIZONTE                                                                                                                                        MG210000000000000000000003310024113106200BELO HORIZONTE                                                                                                                                        MG2113106200BELO HORIZONTE                                                                                                                                        MG1111   533.20   513.20   510.90   554.30DDAEECCEDCAEADACCEDEEBDBDCDCDBBBBCDABECECDDBCBDABACDDEADCCADBADDCBBCAEACDAADEEBDCACBDAECADBDEDABCDECBEACAABDACDBEDECCCABEDBCDEDDBEABBCBCCDAADABBCEBEAAAEDDDABCCCCBCDEBABDACDCBBBCDAD 90 86 961001ACAEBCCEADADDBACBEBABDEEADEDDBCBCDDBAEEACDDECBAABADCBACBECACEBBCCBDCACDCEBDEDBEEEADBEAECDDEDADCDDEDACECECEADEDDBBACCCBEBEBDAACDBCDEDDADABAADCEEBADABCCBDEBBABDCCADAECEDDEBCBBDBBCDBEBEDDEP   375.00   375.00   375.00   625.00   250.00   400.00
2000015492462010 17M2111300SAO LUIS                                                                                                                                              MA21 000000000000000000001210101022111300SAO LUIS                                                                                                                                              MA2112111300SAO LUIS                                                                                                                                              MA1111   345.60   358.80   450.20   404.70ADCBECCBCDEBAEDCACBDBABCDEDDCACADEDEBCADBEEDCABBAAADACEECDDDDEDBECCCBEBBAEABEDADBBDBCDCDABDBECDBDBEBEECAEAEEBCACDBECEAAAADAADEEBDACBEACABDEAAAECCABDEAAEBEACBAECDBCBEBDACBEEECABCDEB 92 88 961001ABAECECCDADADABCABBBEDEEAEDBDCCBDDEEADBAECDCDAABBBCCBDAEACBCEABCCBDACCBECDEEBDEDBAAEEEDCDDEDADCDDEDACECECEADEDDBBACCCBEBEBDAACDBCDEDDADABAADCEEBADABCCBDEBBABDCCADAECEDDEBCBBDBBCDBEBEDDEP   375.00   375.00   375.00   375.00   375.00   375.00
2000001236262010 20F3127701GOVERNADOR VALADARES                                                                                                                                  MG110000000000000000000003                                                                                                                                                                          3127701GOVERNADOR VALADARES                                                                                                                                  MG1111   544.60   571.30   566.30   600.10CBBEBDDDBBDADCDCABEDAECBABDBDEACBEEECDDBDDDBECAEBEACBBADDDDDDAADACABBDABCECECECDAABBADDDABEADACCEEBCAEAACDBDACCCDEDEEAAAEDCBDEDBDBABDCECEEBBDABCAADEAAABCDEDBDCAACADBCCBDBAAAEABCCBD 91 87 95 991CABEAACDCEBADADCEBBBADDEAEEBDDCCBDBDAEEADCDCEAABBDACBCABECCBEBACACDBBCCEDECEBDEDAABEEDDCEDEADCDEDDDACEECCAEDEDDBBACCCEBBEBDAACDBCDEDADDABADACEEBBDACCABDEBBABDCCADAECEDEBDCBBDBBCBDEBEDDEP   750.00   500.00   500.00   500.00   375.00   525.00
2000013992122010 23F3136702JUIZ DE FORA                                                                                                                                          MG110000000000000000000001                                                                                                                                                                          3136702JUIZ DE FORA                                                                                                                                          MG1111   504.00   550.80   507.50   539.30BBEAEDEABABDEDABBCEABDEEBADADBBDACDAABAC*DDDDCBEBDACAAEBCEEDBAACBEABECADBEEBEEEDAABAABDCAEEAEAECEEBAECBDCECAADAECBBDACEAADECECBCBABDCAACDADEDBACABCEAAEDDDBDAEBECBEBDBBBEDCDCDBBEACD 89 85 93 971BACEADCAECABDDACBABEBDEDAEECDBCDBDEEABDACEDDCABABDACBAEBCCCBEABCCADBBCCDECEEDBEDBAEAEDECDDADECDDDEADCEECAECDECDBDABCCEBBEADBACDBCEDDDADBAADACEEBCDABCABAEBBAEDCCDDAECBDDBECBBDBBCDBEBEDDEP   750.00   875.00   625.00   500.00   500.00   650.00
2000006886012010 20M3168705TIMOTEO                                                                                                                                               MG130000000000000000000002                                                                                                                                                                          3168705TIMOTEO                                                                                                                                               MG1111   711.40   684.40   601.50   699.20CEBEBACDBEBADADCEBDBABEBEEBBADCCBDBDBEEADCDCEAABBDCCBCADEDCDEAACACDEBBDEDECDCDBEAABEEDDCEADBEAEEEEBACCDACDBEABCCDEEEADDAADBCEDDCEDBAABACEEBEDABCABCEBBBEECADABBDBCDADACBCEECDBDBEEDD 91 87 93 971CABEAACDCEBADADCEBBBADDEAEEBDDCCBDBDAEEADCDCEAABBDACBCABECCBEBACACDBBCCEDECEBDEDAABEEDDCEDADECDDDEADCEECAECDECDBDABCCEBBEADBACDBCEDDDADBAADACEEBCDABCABAEBBAEDCCDDAECBDDBECBBDBBCDBEBEDDEP   750.00   875.00   875.00   750.00   500.00   750.00
2000038870652010 20F2904050BONITO                                                                                                                                                BA3 0000000000000000000000                                                                                                                                                                          2921708MORRO DO CHAPEU                                                                                                                                       BA1111   407.30   479.70   430.40   441.80BCDEBCDACECDAECDAEDDEAACAECACAECEDBEBCBDEEDBDEADBCCBDEBBEBACBCACCEADBEDCEDBBDEDBAACAADEBACECECAAEEEAAEAEEECDAEEAAEECEEAAEEAEDEAAEAEEAAAAEEEBEACCCBBCDCCDCECCBCCCCEDDCCCACEBCCDCDCBDD 89 85 961001BACEADCAECABDDACBABEBDEDAEECDBCDBDEEABDACEDDCABABDACBAEBCCCBEABCCADBBCCDECEEDBEDBAEAEDECDDEDADCDDEDACECECEADEDDBBACCCBEBEBDAACDBCDEDDADABAADCEEBADABCCBDEBBABDCCADAECEDDEBCBBDBBCDBEBEDDEP   625.00   625.00   500.00   375.00   375.00   500.00
2000043403882010 21F2800308ARACAJU                                                                                                                                               SE110000000000000000000002                                                                                                                                                                          2800308ARACAJU                                                                                                                                               SE1111   487.20   544.90   440.50   424.10CABEDBCCAEDCDBBCBBBCBBDCBDBDCADBCBBCECBCCBDCBDBBBDECCACEABDCEADCCADBEBBABCBCAEADBAACEECABBCDBAABEDAAACABCABEABDCECDABCABADCABCCBDADBCBBEDBCDBCDBCBDCBCDDCBBEBADBECCCBCDBDEADADBAEADE 92 88 94 981ABAECECCDADADABCABBBEDEEAEDBDCCBDDEEADBAECDCDAABBBCCBDAEACBCEABCCBDACCBECDEEBDEDBAAEEEDCDDDAEDCDDEADCECEEACDECDBDABCCBEBEDABACDBCEDDADDBAAADCEEBDCACBABAEBBAEDCDCDAECBDBDECBBDBBCBDEDEBDEP   625.00   625.00   625.00   625.00   625.00   625.00
2000021941152010 27F2208809REGENERACAO                                                                                                                                           PI110000000000000000000003                                                                                                                                                                          2200509AMARANTE                                                                                                                                              PI1111   412.90   442.90   437.20   422.10EECBCBCCBDECDACEAECDBDBDCBCADECCBDBDEDAECDDCEECBDBCEBDCEEDEDBECDABCBDCEDBACDBACDBACDBDDBCECEAEDBECBEEBADEDBDACDECADCBCEAEDBCBCEBDCDACDBCEDBBAECCDDCEAEBCBDDBDCECBDDBCDBCECDACDEDECDA 92 88 961000ABAECECCDADADABCABBBEDEEAEDBDCCBDDEEADBAECDCDAABBBCCBDAEACBCEABCCBDACCBECDEEBDEDBAAEEEDCDDEDADCDDEDACECECEADEDDBBACCCBEBEBDAACDBCDEDDADABAADCEEBADABCCBDEBBABDCCADAECEDDEBCBBDBBCDBEBEDDEP   500.00   375.00   500.00   375.00   500.00   450.00
2000045550322010 25F2927408SALVADOR                                                                                                                                              BA110000000000000000000013                                                                                                                                                                          2927408SALVADOR                                                                                                                                              BA1111   439.30   434.80   500.40   533.80BCBEBBEAACBDCADCBEAECDBEBDAEDBAACEEBACEEBEABDEBACECDBEABBCECCAEBCBBAABECEECADABDCBACDEEBBAADCEBBEBBAECDBCEBEEBEBCECEACBBADCEADDAABBBBEDCBECADAACADBEEBADBC*DCEBEEACBBADCEADDAABDBBED 89 85 93 970BACEADCAECABDDACBABEBDEDAEECDBCDBDEEABDACEDDCABABDACBAEBCCCBEABCCADBBCCDECEEDBEDBAEAEDECDDADECDDDEADCEECAECDECDBDABCCEBBEADBACDBCEDDDADBAADACEEBCDABCABAEBBAEDCCDDAECBDDBECBBDBBCDBEBEDDEP   625.00   500.00   500.00   500.00   500.00   525.00
2000005013122010 22F2111300SAO LUIS                                                                                                                                              MA110000000000000000000003                                                                                                                                                                          2111300SAO LUIS                                                                                                                                              MA1111   466.50   507.10   522.20   391.30BEAEBACDACADBDACDDEBBCDCABDDBACEBAABACCCAAABDBABBDEEDACDACDDBAABCADBCEACEAECAECDBAAEADABDEDEEECCEBEAECACBABEAACCEDEDCABAEDECEDDBDCBEEDAACCADCACDBEACBAACCECBDBCBBABDBABACDABAACDDACA 89 85 94 981BACEADCAECABDDACBABEBDEDAEECDBCDBDEEABDACEDDCABABDACBAEBCCCBEABCCADBBCCDECEEDBEDBAEAEDECDDDAEDCDDEADCECEEACDECDBDABCCBEBEDABACDBCEDDADDBAAADCEEBDCACBABAEBBAEDCDCDAECBDBDECBBDBBCBDEDEBDEP   750.00   750.00   750.00   750.00   500.00   700.00
2000018998072010 17M1200401RIO BRANCO                                                                                                                                            AC11 000000000000000000002                                                                                                                                                                          1200401RIO BRANCO                                                                                                                                            AC1111   433.90   452.90   454.60   558.70EDAECBCDBCAEBBDDEACECABBDEBCABEDAEABDBCEADBEACBDBAEBAEABBECECAACDEDBABACDBEBCABECADCABECADDAAECDA*BBDCECCACCAECDAEEDBADACDCEEDBCDEBADBCCEAEBDABDBACEDBDCDDADBDBACAADCCCBEDBACADBDBBE 89 85 93 970BACEADCAECABDDACBABEBDEDAEECDBCDBDEEABDACEDDCABABDACBAEBCCCBEABCCADBBCCDECEEDBEDBAEAEDECDDADECDDDEADCEECAECDECDBDABCCEBBEADBACDBCEDDDADBAADACEEBCDABCABAEBBAEDCCDDAECBDDBECBBDBBCDBEBEDDEP   500.00   250.00   250.00   375.00   250.00   325.00
2000015856992010 17F2923803PARIPIRANGA                                                                                                                                           BA21 000000000000000000001298517772923803PARIPIRANGA                                                                                                                                           BA3112923803PARIPIRANGA                                                                                                                                           BA1111   478.10   534.00   514.10   454.00EBBEEBCBADBDADABECBABBCADECADEBDCEADBCEADBECAAAEDCAEBABAECEDEACDCBDCDAAADCCDDDAABADBACECAECECBBCEDEEBCCCCDCEABAEADEDDABAADBDECDBDEBBDCACEDCDCCDCCABCEACDCDDBCEDCDCDDDCCCBAEDCBAEDABA 90 86 94 980ACAEBCCEADADDBACBEBABDEEADEDDBCBCDDBAEEACDDECBAABADCBACBECACEBBCCBDCACDCEBDEDBEEEADBEAECDDDAEDCDDEADCECEEACDECDBDABCCBEBEDABACDBCEDDADDBAAADCEEBDCACBABAEBBAEDCDCDAECBDBDECBBDBBCBDEDEBDEP   625.00   625.00   500.00   500.00   500.00   550.00
2000008738212010 17F4317400SANTIAGO                                                                                                                                              RS21 000000000000000000003431281144317400SANTIAGO                                                                                                                                              RS2114317400SANTIAGO                                                                                                                                              RS1111   435.60   444.10   479.90   355.70BCBEED*CDCAEBDADEDBACDEAACBBDACADAABCECDBADBBEAABCABDCECACCADADCEDBABBCCEBADDEABCAEBBABADEDDEACEECEAECBDCDAEADEBCCEBAABBCDADBDABEEBCABAADBECDCBCBAAEDABBDDBECACAEDAADBEEABCDDACCEBBD 90 86 94 981ACAEBCCEADADDBACBEBABDEEADEDDBCBCDDBAEEACDDECBAABADCBACBECACEBBCCBDCACDCEBDEDBEEEADBEAECDDDAEDCDDEADCECEEACDECDBDABCCBEBEDABACDBCEDDADDBAAADCEEBDCACBABAEBBAEDCDCDAECBDBDECBBDBBCBDEDEBDEP   750.00   875.00   750.00   750.00   625.00   750.00
2000033424062010 24M1502707CONCEICAO DO ARAGUAIA                                                                                                                                 PA110000000000000000000003                                                                                                                                                                          1502707CONCEICAO DO ARAGUAIA                                                                                                                                 PA1111   421.80   403.40   374.70   485.80CACEDEEBEEBAACDBAEDDBBCCBBACDAACDCDBEBBCDDACDACEEBBDAECCEBDABBADDAAAA*AEDCDAECBDAAABAABCCBBCAECAABADCAAEDECDBDBEABAADBBAADECCBBEEAADAAACCECCCBBBABABCDCECCBBAABAADBBDCDDCBAAEEABBBAD 91 87 961000CABEAACDCEBADADCEBBBADDEAEEBDDCCBDBDAEEADCDCEAABBDACBCABECCBEBACACDBBCCEDECEBDEDAABEEDDCEDEDADCDDEDACECECEADEDDBBACCCBEBEBDAACDBCDEDDADABAADCEEBADABCCBDEBBABDCCADAECEDDEBCBBDBBCDBEBEDDEP   500.00   375.00   375.00   375.00   500.00   425.00
